:020000040800F2
:1000000080FB00209D01000895B800080D8B0008BA
:1000100079B60008054400087931020800000000A4
:1000200000000000000000000000000071E2010874
:10003000B55C000800000000F9C60008B501000822
:10004000B7010008B7010008B7010008B7010008B0
:10005000B7010008B7010008B7010008B7010008A0
:10006000B7010008B7010008B7010008B701000890
:10007000B7010008B7010008B7010008B701000880
:10008000B7010008B7010008B7010008B701000870
:10009000B7010008B7010008B7010008B701000860
:1000A000B7010008B7010008B7010008B701000850
:1000B000B701000895F80108B7010008B70100086A
:1000C000B7010008B7010008B7010008B701000830
:1000D000B7010008352F0208B7010008B701000872
:1000E000B7010008B7010008B7010008B701000810
:1000F000B7010008B7010008B7010008B701000800
:10010000B7010008B7010008EDF80108B7010008C1
:10011000B7010008FD08020825F90108B701000829
:10012000B7010008B7010008B7010008B7010008CF
:10013000B7010008B7010008B7010008B7010008BF
:1001400011450008B7010008B7010008B701000811
:10015000B7010008B7010008B7010008992F02088D
:10016000B7010008B7010008B7010008B70100088F
:10017000B7010008B7010008B7010008B70100087F
:10018000B7010008B7010008DFF80CD000F05EFDF1
:1001900000480047B1EA020880FB0020064880477B
:1001A00006480047FEE7FEE7FEE7FEE7FEE7FEE75C
:1001B000FEE7FEE7FEE7FEE705F801088901000813
:1001C0002DE9F0410024061B254671F1000605DAF1
:1001D00001240027D0EB070067EB0101161E73F125
:1001E000000605DA0027D2EB0702012567EB0303BF
:1001F00000F01EFB86460E4617469C46AC4204D0D5
:100200000025D0EB050E65EB010624B10020D2EBF2
:10021000000760EB030C704631463A466346BDE882
:10022000F08140EA01039B0703D009E008C9121FCF
:1002300008C0042AFAD203E011F8013B00F8013BA0
:10024000521EF9D27047D2B201E000F8012B491ECC
:10025000FBD270470022F6E710B513460A46044663
:100260001946FFF7F0FF204610BD30B505462A4677
:100270000B4612F8010B13F8014B08B1A042F8D05D
:100280001CB1002802D06D1CF1E7284630BD10B526
:10029000044604E00B7800F8013B03B1491C521EF0
:1002A000F8D2204610BD421C10F8011B0029FBD1DA
:1002B000801A704710B5002200E0521C835C8C5CF1
:1002C000A34201D1002BF8D1D8B2E1B2401A10BD3F
:1002D000034611F8012B00F8012B002AF9D118462A
:1002E000704710B5484304462EF0E8FB002805D0BF
:1002F0000021002C02D0641E0155FAE710BD2DE943
:10030000F04791460F4680460446002614F8015BEC
:100310002DB100F0EFFA0068405DC007F6D12B2D3B
:1003200002D02D2D18D0641E4A463946204600F0D2
:10033000E5FA27B13968A14201D1C7F800807105FB
:100340004FF002040BD54042002803DD23F0F2F801
:100350000460A007BDE8F08746F48066E4E7002863
:10036000F8DA23F0E7F804606FF00040F2E770B5C8
:10037000064623F0DFF8046805460A2200213046CD
:10038000FFF7BDFF2C6070BD2DE9FE4F804681EA6E
:100390000300C00F0C46009021F0004123F00045FF
:1003A000B8EB0200A94105D24046214690461C46C2
:1003B0000B46024623F00040104347D0270DC7F3F9
:1003C0000A00C3F30A510290401A019040286BDAE8
:1003D000C3F3130040F4801B0098924620B1002321
:1003E000D2EB030A63EB0B0B01985946C0F14002B4
:1003F000504600F04EFA06460D4650465946019AC0
:1004000000F066FA10EB08006141002487EA1152FF
:1004100084EAE7731A4340D0009A62B3019A012A32
:100420004FEA075215DC001B61EB02014FF000425E
:1004300002EA0752CDE90042001C41F58011324624
:100440002B4600F0F0FA03B0BDE8F08F404621469D
:10045000F9E7001B61EB0201001C41F58013001855
:100460005B412018A2F5001747EB030140EAD57065
:10047000B6196D4111E06D084FEA360645EAC075C0
:100480004FEA0752001B61EB0201001C41F580118D
:1004900049084FEA30000019514132462B4603B05B
:1004A000BDE8F04F00F0B0BA0098012240000023F0
:1004B000D0EB020263EBE073009821464FEAE07450
:1004C000B8EB000061EB0401E9E783F000435BE770
:1004D00081F0004158E72DE9FE4F81EA030404F062
:1004E000004421F0004100944FF0000B23F0004342
:1004F00050EA01045ED052EA03045BD0C3F30A540D
:10050000C1F30A552C44A4F2F3340194A0FB025425
:10051000C1F3130141F48011C3F3130343F48013B7
:1005200001FB024400FB034E840A970A44EA81540B
:1005300047EA8357A4FB076802958D0A05FB0785E8
:100540004FEA932C04FB0C542705029D4FEA0658F2
:1005500047EA1637B5EB08056EEB070C870E920ECF
:1005600047EA811742EA8312A7FB0201B6EB0B01AF
:1005700064EB00042B0D43EA0C335E1844EB1C5073
:10058000DA465146E7FB0201C5F313044FEA0B3389
:1005900043EA14534FEA0432019C43EA0603A4F1F0
:1005A0000C040294009CCDE900B400F03CFA03B0C6
:1005B000BDE8F08F00200146F9E72DE9F04D81EA12
:1005C000030404F0004B21F0004514464FF0000AEC
:1005D00023F0004150EA050220D054EA01021DD068
:1005E000C5F30A570246C5F31303C1F31300C1F361
:1005F0000A5640F4801543F48013A7EB0608101B3D
:10060000D64608F2FD3873EB050002D308F1010865
:1006100001E092185B41B8F1000F03DA00200146B7
:10062000BDE8F08D00204FF48011064684460EE0B0
:10063000171B73EB050705D3121B63EB050306437A
:100640004CEA010C49084FEA300092185B4150EA2D
:100650000107EDD152EA030012D082EA040083EAD6
:100660000501084305D0101BAB4106D2012200232F
:1006700006E000224FF0004302E06FF00102531049
:100680001AEB06004CEB085110EB0A0041EB0B0192
:10069000BDE8F04D00F0B8B90EB5C10F80EAE070CA
:1006A0000844CA07002140F233438DE80E000A4691
:1006B0000B4600F0B8F903B000BD0EB540F233416F
:1006C00002910021CDE900110A460B4600F0ABF97A
:1006D00003B000BD70B5C1F30A5201F0004500241B
:1006E000C1F3130140F2FF3341F480119A4201DA61
:1006F000002070BD40F233439A42A2F2334203DC41
:10070000524200F0D5F800E090402C43F1D0404236
:1007100070BDC1F30A5210B5C1F3130140F2FF33AB
:1007200041F480119A4201DA002010BD40F23343B7
:100730009A42A2F2334203DC524200F0B9F810BDF3
:10074000904010BD00F0004230F000400AD0C10DD2
:1007500001F56071C0F3160042EA0151C20840077A
:1007600011437047002001467047000030B5041E59
:1007700071F1000404DB4FF00044404264EB0101DE
:10078000141E73F1000405DB1C464FF00043524277
:1007900063EB04038B4208BF824230BD30B5041EB8
:1007A00071F1000404DB4FF00044404264EB0101AE
:1007B000141E73F1000405DB1C464FF00043524247
:1007C00063EB0403994208BF904230BD01F000433F
:1007D00030B421F0004150EA010206D00A0DA2F522
:1007E0006072C1F31301002A02DC30BC00207047A4
:1007F000440F44EAC104C100E01830BC00EBC25011
:1008000000F0CBB830B50B46014600202022012471
:1008100009E021FA02F59D4205D303FA02F5491BCE
:1008200004FA02F52844151EA2F10102F1DC30BDE4
:100830002DE9F05F0546002092469B468846064615
:10084000814640241BE0284641464746224600F0A8
:100850002FF853465A46C01A914110D311461846F4
:10086000224600F016F82D1A67EB01084F46224683
:100870000120002100F00DF817EB00094E41201E69
:10088000A4F10104DFDC484631462A464346BDE870
:10089000F09F202A04DB203A00FA02F10020704782
:1008A0009140C2F1200320FA03F3194390407047AE
:1008B000202A04DB203A21FA02F00021704721FAB5
:1008C00002F3D040C2F1200291400843194670471C
:1008D000202A06DBCB17203A41FA02F043EAE07304
:1008E00006E041FA02F3D040C2F1200291400843F1
:1008F00019467047004870478C0303082DE9F05FE4
:1009000082460078002715468B460AF10104B94655
:10091000302801D09DB113E014F8010B012778288D
:1009200003D0582801D045B10AE00DB1102D07D1F0
:100930000027102514F8010B02E0082500E00A2525
:100940000026B0460EE005FB080005FB06F1012776
:1009500001EB10461FFA80F8B6F5803F00D3B94688
:1009600014F8010B294600F083F90028EBDABBF1FB
:10097000000F05D00FB1641E00E05446CBF80040D4
:10098000B9F1000F06D022F0D5FD02210160C81E8A
:10099000BDE8F09F48EA0640FAE70029A8BF704783
:1009A000401C490008BF20F00100704710B4B0FAA5
:1009B00080FC00FA0CF050EA010404BF10BC704740
:1009C00049B1CCF1200421FA04F411FA0CF118BF5A
:1009D000012121430843A3EB0C01CB1D4FEA006129
:1009E0004FEA102042BF002010BC704700EBC350FC
:1009F00010440029A4BF10BC7047401C490008BF28
:100A000020F0010010BC704710B5141E73F10004F3
:100A100008DA401C41F1000192185B411A4301D1F0
:100A200020F0010010BD2DE9F04D92469B4611B11A
:100A3000B1FA81F202E0B0FA80F220329046FFF77C
:100A400028FF04460F4640EA0A0041EA0B015346DC
:100A50005A46084313D0114653EA010019D0C8F191
:100A600040025046FFF724FF05460E4650465946C1
:100A70004246FFF70EFF084305D0012004E0204660
:100A80003946BDE8F08D0020054346EAE0762C4368
:100A900037430A986305E40AA0EB08000022FD0A28
:100AA00044EA47540A3002D500200146E9E701052F
:100AB00010196941DDE9084500196941BDE8F04DAB
:100AC000A2E770B521F0004303430CD0C1F30A55EF
:100AD0000024D5EB040564EB0403D617AD1AB3412B
:100AE00002DB0020014670BD201841EB025170BDB1
:100AF0002DE9F04D00231A461B1A8A4103DB002022
:100B00000146BDE8F08DC1F30A52C1F3130141F46F
:100B100080154FF0000BD10702D100186D41521E15
:100B20000027044640F2FF11384601EB620A3E46B8
:100B30008046024600204FF48011FFF7B9FEC2192B
:100B40007141BB1846EB0100B4EB030C75EB000CD4
:100B500004D3E41A65EB000517460E46241908F184
:100B600001006D4180463428E3DDF91946EB0600AB
:100B7000091BA84103D24FF0FF32134601E00022C7
:100B800013461BEB070046EB0A51BDE8F04DFFF79B
:100B90003BBF00002DE9F041054621F000400C4626
:100BA000284309D0C4F30A5040F23341884205DD9E
:100BB00028462146BDE8F0812846FBE740F2FE3199
:100BC000884210DC0CDB4FEA043040EA155050EA52
:100BD000053105D0104804F0004101430020E9E749
:100BE00000200146E6E7A0F233404642C6F140024B
:100BF00028462146FFF74DFE0746884628462146EF
:100C00003246FFF755FE43463A46FFF7FDFE3246B1
:100C1000BDE8F041FFF73DBE0000F03FC1F30A52CE
:100C2000C1F3130140F2FF3341F480119A4202DA1A
:100C300000200146704740F233439A42A2F2334209
:100C400002DC5242FFF734BEFFF723BE064C074DCD
:100C500006E0E06840F0010394E80700984710348C
:100C6000AC42F6D3FFF794FA500603088006030857
:100C70003A2800D2303820F02002412A01D3A2F1D4
:100C80003700884201D34FF0FF30704770B58C18A1
:100C900010F8015B15F0070301D110F8013B2A1190
:100CA00006D110F8012B03E010F8016B01F8016B7D
:100CB0005B1EF9D12B0705D40023521E0DD401F879
:100CC000013BFAE710F8013BCB1A921C03E013F842
:100CD000015B01F8015B521EF9D5A142D8D3002077
:100CE00070BD000070B516462DED0A8B0C4605460A
:100CF00091ED060B9FED868B51EC100B53EC182BEE
:100D0000FFF7E9FB9FED849B53EC192BFFF755FC94
:100D100041EC100B24F0D8F894ED021B51EC100BB1
:100D200053EC112BFFF7D7FB94ED060B41EC1C0B9A
:100D300053EC182B51EC100BFFF7CDFB53EC192B98
:100D4000FFF73BFC41EC100B23F00AF894ED001B7D
:100D500051EC100B53EC112BFFF7BDFB94ED060B80
:100D600041EC1B0B53EC182B51EC100BFFF7B3FBB2
:100D700053EC192BFFF721FC41EC100B24F0A4F8E5
:100D800095ED021B51EC100B53EC112BFFF7A3FB5D
:100D900094ED060B41EC1A0B53EC182B51EC100B95
:100DA000FFF799FB53EC192BFFF707FC41EC100BF5
:100DB00022F0D6FF95ED001B51EC100B53EC112BDC
:100DC000FFF789FB53EC1A2BFFF7DEFA53EC1B2BD2
:100DD000FFF77BFB53EC1C2BFFF777FBC6E9000109
:100DE00094ED060B53EC182B51EC100BFFF773FB33
:100DF00053EC192BFFF7E1FB41EC100B22F0B0FF95
:100E000094ED021B51EC100B53EC112BFFF763FB1D
:100E100094ED060B41EC1B0B53EC182B51EC100B13
:100E2000FFF759FB53EC192BFFF7C7FB41EC100BF5
:100E300024F04AF894ED001B51EC100B53EC112BED
:100E4000FFF749FB94ED060B41EC1A0B53EC182B02
:100E500051EC100BFFF73FFB53EC192BFFF7ADFBE9
:100E600041EC100B24F030F895ED001B51EC100B09
:100E700053EC112BFFF72FFB94ED060B41EC1C0BF1
:100E800053EC182B51EC100BFFF725FB53EC192BEF
:100E9000FFF793FB41EC100B22F062FF95ED021B74
:100EA00051EC100B53EC112BFFF715FB53EC1C2BE3
:100EB000FFF70BFB53EC1A2BFFF766FA53EC1B2BD7
:100EC000FFF703FBC6E9020194ED041B95ED040B4B
:100ED00053EC112B51EC100BFFF7F7FAC6E90401A4
:100EE00094ED061B95ED060B53EC112B51EC100BFA
:100EF000FFF7EBFA41EC100B9FED091B86ED060B9B
:100F00000AF03CFC86ED060B0020BDEC0A8B70BDA0
:100F1000112D4454FB210940000000000080664070
:100F2000000000000000000070B50C462DED108B95
:100F30001831B0EE42CAF0EE62CAB0EE41DAF0EE1D
:100F400061DAB0EE40EAF0EE60EAC6B0054691EC38
:100F5000060B164608A803F047FF05F118011AA86A
:100F600091EC060B03F040FF9DED0EAB9DED0A0BDF
:100F70008DED0AAB8DED0E0B9DED149B9DED0C0BD5
:100F80008DED0C9B8DED140B9DED161B9DED120B45
:100F90008DED121B8DED160B94ED040B51EC190B1E
:100FA00053EC102BFFF797FA94ED020B41EC1F0B5B
:100FB00053EC102B51EC1A0BFFF78DFA94ED000B4C
:100FC0009DED088B41EC1B0B53EC102B51EC180BD7
:100FD000FFF781FA53EC1B2BFFF7D6F953EC1F2BCD
:100FE000FFF7D2F995ED040B41EC1B0B53EC102BE2
:100FF00051EC190BFFF76FFA95ED020B41EC190B51
:1010000053EC102B51EC1A0BFFF765FA95ED000B22
:1010100041EC1A0B53EC102B51EC180BFFF75BFA59
:1010200053EC1A2BFFF7B0F953EC192BFFF7ACF97F
:1010300053EC1B2BFFF749FAC6E9000194ED040BB2
:101040009DED12AB53EC102B51EC1A0BFFF743FA4A
:1010500094ED020B9DED108B41EC1F0B53EC102B0C
:1010600051EC180BFFF737FA94ED000B9DED0E9B3A
:1010700041EC1B0B53EC102B51EC190BFFF72BFA27
:1010800053EC1B2BFFF780F953EC1F2BFFF77CF978
:1010900095ED040B41EC1B0B53EC102B51EC1A0B90
:1010A000FFF719FA95ED020B41EC1A0B53EC102BDC
:1010B00051EC180BFFF70FFA95ED000B41EC180BF4
:1010C00053EC102B51EC190BFFF705FA53EC182BCE
:1010D000FFF75AF953EC1A2BFFF756F953EC1B2B79
:1010E000FFF7F3F9C6E9020194ED040B9DED18AB8F
:1010F00053EC102B51EC1A0BFFF7EDF994ED020BAA
:101100009DED169B41EC1F0B53EC102B51EC190B72
:10111000FFF7E1F994ED000B9DED148B41EC1B0BF7
:1011200053EC102B51EC180BFFF7D5F953EC1B2B9C
:10113000FFF72AF953EC1F2BFFF726F995ED040B67
:1011400041EC1B0B53EC102B51EC1A0BFFF7C3F9BE
:1011500095ED020B41EC1A0B53EC102B51EC190BD3
:10116000FFF7B9F995ED000B41EC190B53EC102B7F
:1011700051EC180BFFF7AFF953EC192BFFF704F9FB
:1011800053EC1A2BFFF700F953EC1B2BFFF79DF9DB
:10119000C6E904012CAA1AA908A808F085FC40ABEE
:1011A00004AA6946B0EE4C2AF0EE6C2AB0EE4D1A55
:1011B000F0EE6D1AB0EE4E0AF0EE6E0A2CA804F0B6
:1011C0007BFD9FED128B9DED000BB0EE481AF0EE0B
:1011D000681A0AF0D3FA86ED060BB0EE481AF0EE64
:1011E000681A9DED040B0AF0C9FA86ED080BB0EE03
:1011F000481AF0EE681A9DED400B0AF0BFFA86ED32
:101200000A0B46B00020BDEC108B70BD0000000042
:101210000000000010B504462DED108BB0EE438A9F
:10122000F0EE638AB0EE409AF0EE609AB0EE41AA1A
:10123000F0EE61AAB0EE42BAF0EE62BA53EC182BAF
:1012400051EC180BFFF747F941EC1C0B53EC1B2B2F
:1012500051EC1B0BFFF73FF941EC1D0B53EC1A2B24
:1012600051EC1A0BFFF737F941EC1E0B53EC192B1D
:1012700051EC190BFFF72FF953EC1E2BFFF784F8F5
:1012800053EC1D2BFFF780F853EC1C2BFFF77CF879
:1012900041EC100B23F07CFEB0EE40DAF0EE60DAA9
:1012A00094ED060B53EC102B51EC100BFFF713F9D8
:1012B00094ED040B41EC1F0B53EC102B51EC100B75
:1012C000FFF709F994ED020B41EC1E0B53EC102BC8
:1012D00051EC100BFFF7FFF894ED000B41EC1C0BE9
:1012E00053EC102B51EC100BFFF7F5F853EC1C2BC3
:1012F000FFF74AF853EC1E2BFFF746F853EC1F2B71
:10130000FFF742F841EC100B23F042FEB0EE40CA6A
:10131000F0EE60CA94ED060B51EC180B53EC102B59
:10132000FFF7D9F894ED040B41EC180B53EC102B9C
:1013300051EC1B0BFFF7CFF894ED020B41EC1B0BAC
:1013400053EC102B51EC1A0BFFF7C5F894ED000B82
:1013500041EC1A0B53EC102B51EC190BFFF7BBF8B7
:1013600053EC1A2BFFF710F853EC1B2BFFF70CF87C
:1013700053EC182BFFF708F841EC180B53EC1C2B1F
:1013800051EC1D0BFFF7A7F841EC100B51EC180BBB
:1013900053EC102BFFF711F99FED259B41EC180B37
:1013A00053EC192BFFF7FAF908D351EC180B9FED0A
:1013B000229B53EC192BFFF7D9F903D2B0EE498ADF
:1013C000F0EE698A9FED1E0B51EC180B53EC102BBD
:1013D000FFF7CCF91FD294ED000B51EC100B81F00C
:1013E0000041C4E9000194ED020B51EC100B81F0B7
:1013F0000041C4E9020194ED040B51EC100B81F0A3
:101400000041C4E9040194ED060B51EC100B81F08E
:101410000041C4E90601B0EE480AF0EE680A22F085
:10142000AFFEBDEC108BBDE8104022F089B8000083
:10143000000000000000F03F000000000000F0BFCE
:10144000000000000000000070B50C462DED108B70
:1014500005469FEDAFEB9FEDB0CB90ED0A0B53EC43
:10146000102B51EC100BFFF736F895ED080B41EC03
:10147000190B53EC102B51EC100BFFF72CF895EDDA
:10148000060B41EC180B53EC102B51EC100BFFF733
:1014900022F895ED040B41EC1A0B53EC102B51EC98
:1014A000100BFFF718F895ED020B41EC1D0B53ECF8
:1014B000102B51EC100BFFF70EF895ED000B41ECE3
:1014C0001B0B53EC102B51EC100BFFF704F853ECF3
:1014D0001B2BFEF759FF53EC1D2BFEF755FF53EC6A
:1014E0001A2BFEF751FF53EC182BFEF74DFF53EC70
:1014F000192BFEF749FF41EC100B23F049FDB0EE2C
:10150000408AF0EE608A94ED0A0B53EC102B51ECFC
:10151000100BFEF7E0FF94ED080B41EC1F0B53ECB2
:10152000102B51EC100BFEF7D6FF94ED060B41EC9F
:101530001D0B53EC102B51EC100BFEF7CCFF94ED70
:10154000040B41EC1B0B53EC102B51EC100BFEF772
:10155000C2FF94ED020B41EC1A0B53EC102B51EC33
:10156000100BFEF7B8FF94ED000B41EC190B53EC98
:10157000102B51EC100BFEF7AEFF53EC192BFEF7BE
:1015800003FF53EC1A2BFEF7FFFE53EC1B2BFEF769
:10159000FBFE53EC1D2BFEF7F7FE53EC1F2BFEF763
:1015A000F3FE41EC100B23F0F3FCB0EE409AF0EEAA
:1015B000609A53EC1E2B51EC180BFFF7D7F806D3AB
:1015C00053EC1E2B51EC190BFFF7D0F806D2B0EEFE
:1015D0004C0AF0EE6C0ABDEC108B70BD94ED0A0B5A
:1015E00095ED0A1B53EC102B51EC110BFEF773FF1A
:1015F00094ED080B95ED081B41EC1F0B53EC102BE1
:1016000051EC110BFEF767FF94ED060B95ED061BF1
:1016100041EC1E0B53EC102B51EC110BFEF75BFF52
:1016200094ED041B95ED040B41EC1D0B53EC112BB9
:1016300051EC100BFEF74FFF94ED021B95ED020BE2
:1016400041EC1B0B53EC112B51EC100BFEF743FF3D
:1016500094ED001B95ED000B41EC1A0B53EC112B94
:1016600051EC100BFEF737FF53EC1A2BFEF78CFEF4
:1016700053EC1B2BFEF788FE53EC1D2BFEF784FE6C
:1016800053EC1E2BFEF780FE53EC1F2BFEF77CFE67
:1016900041EC1A0B53EC192B51EC180BFEF71BFF06
:1016A00041EC100B51EC1A0B53EC102BFEF785FF9D
:1016B0009FED1B9B41EC180B53EC192BFFF76EF8B9
:1016C0000AD3B0EE4C9AF0EE6C9A53EC192B51EC15
:1016D000180BFFF74BF803D2B0EE498AF0EE698A97
:1016E000B0EE480AF0EE680A21F02AFF9FED0E1BCB
:1016F00051EC100B53EC112BFEF7EDFE9FED0C1B84
:1017000053EC112BFEF759FF41EC100B63E700007F
:10171000F168E388B5F8E43E000000000000F0BF87
:10172000000000000000F03F000000000080664064
:10173000112D4454FB2109402DE9FF4F14462DED96
:10174000108BE3B0054691ED020B91ED001B8DED82
:10175000060B91ED040B8DED040B91ED06AB91EDB5
:10176000089B91ED0ACB9FEDFE0B51EC110B53EC56
:10177000102BFEF7B0FE0F4647EC100B06469FED10
:10178000FA8B51EC100B53EC182BFEF716FF41ECC3
:10179000100B22F0E5FA8DED180B47EC106B53ECB3
:1017A000182B51EC100BFEF708FF41EC100B23F047
:1017B0008BFBB0EE40FAF0EE60FA9FEDE90B53ECD4
:1017C000102B9DED060B51EC100BFEF784FE0F461F
:1017D00047EC100B064653EC182B51EC100BFEF7A0
:1017E000ECFE41EC100B22F0BBFA8DED080B47EC40
:1017F000106B53EC182B51EC100BFEF7DEFE41EC96
:10180000100B23F061FB8DED0A0B9FEDD50B53EC14
:10181000102B9DED040B51EC100BFEF75CFE0F46F8
:1018200047EC100B064653EC182B51EC100BFEF74F
:10183000C4FE41EC100B22F093FA8DED0E0B47EC39
:10184000106B53EC182B51EC100BFEF7B6FE41EC6D
:10185000100B23F039FB8DED120B9FEDC10B51ECFA
:101860001A0B53EC102BFEF736FE0F4647EC100B0D
:10187000064653EC182B51EC100BFEF79EFE41EC84
:10188000100B22F06DFAB0EE40BAF0EE60BA47EC01
:10189000106B53EC182B51EC100BFEF78EFE41EC45
:1018A000100B23F011FBB0EE40EAF0EE60EA9FED82
:1018B000AC0B51EC190B53EC102BFEF70CFE0F4642
:1018C00047EC100B064653EC182B51EC100BFEF7AF
:1018D00074FE41EC100B22F043FAB0EE40AAF0EE99
:1018E00060AA47EC106B53EC182B51EC100BFEF771
:1018F00064FE41EC100B23F0E7FAB0EE409AF0EEF4
:10190000609A9FED970B51EC1C0B53EC102BFEF7DC
:10191000E2FD0F4647EC100B064653EC182B51EC3A
:10192000100BFEF74AFE41EC100B22F019FAB0EE54
:1019300040DAF0EE60DA47EC106B53EC182B51EC08
:10194000100BFEF73AFE41EC100B23F0BDFAB0EE9F
:1019500040CAF0EE60CA9DED040B53EC102B9DEDD8
:10196000060B51EC100BFEF70FFD0F4647EC100B6A
:1019700006469FED7B1B51EC100B53EC112BFEF731
:10198000AAFD53EC182BFEF718FE41EC100B22F0C9
:10199000E7F98DED100B47EC106B9FED711B51ECCF
:1019A000100B53EC112BFEF796FD53EC182BFEF7A2
:1019B00004FE41EC100B23F087FAB0EE408AF0EE03
:1019C000608A95ED0C0B8DED160B95ED100B8DEDE2
:1019D000140B95ED1C0B8DED5A0B95ED240B8DED35
:1019E000040B95ED280B8DED580B95ED300B8DED1F
:1019F000020B95ED3C0B8DED0C0B95ED000B8DED79
:101A0000400B95ED020B8DED420B95ED040B8DED2A
:101A1000440B95ED060B8DED460B95ED080B8DED0A
:101A2000480B95ED0A0B8DED4A0B9FED510B53ECD6
:101A3000102B9DED140B51EC100BFEF797FE37D3D6
:101A40009FED4B0B53EC102B9DED5A0B51EC100BF3
:101A5000FEF78CFE2CD99FED460B53EC102B9DED21
:101A6000580B51EC100BFEF781FE21D39DED020BBC
:101A700053EC102B9DED040B51EC100BFEF784FC86
:101A80008A464AEC100B9FED3A1B054653EC112B8E
:101A900051EC100BFEF76AFE0AD99FED350B53ECA3
:101AA000102B9DED0C0B51EC100BFEF75FFE07D8D1
:101AB00040F2FD3063B0BDEC108B04B0BDE8F08F98
:101AC00053EC192B51EC1B0BFEF705FD894649EC35
:101AD000100B9DED0C1B074653EC112B51EC100B1A
:101AE000FEF7F9FC9DED581B53EC112BFEF7F0FCB3
:101AF0009DED121B53EC112BFEF7EDFC41EC100B8E
:101B000051EC1A0B8DED5C0B9DED0C0B53EC102B77
:101B1000FEF7E1FC884648EC100B4AEC115B0646E8
:101B200053EC102B51EC110BFEF72EFC9DED0E1B10
:101B300053EC112BFEF7CFFC9DED5C0B53EC102BFF
:101B4000FEF722FC41EC100B4AEC115B8DED5C0BB7
:101B500048EC106B51EC110B53EC102B0CE0000017
:101B6000112D4454FB210940000000000080664014
:101B70000000000000000000FEF706FC9DED121BB7
:101B800053EC112BFEF7A7FC41EC100B8DED040B71
:101B900049EC107B9DED0C1B51EC100B53EC112B01
:101BA000FEF799FC9DED581B53EC112BFEF790FCB2
:101BB0009DED0E1B53EC112BFEF78DFC9DED040BE0
:101BC00053EC102BFEF781FC9DED5A1B53EC112BAF
:101BD000FEF7DAFB0E4646EC100B9DED0A1B0546A0
:101BE00053EC112B51EC100BFEF775FC41EC100B74
:101BF0008DED040B9DED5C0B53EC102B9DED080B54
:101C000051EC100BFEF767FC9DED161B53EC112BEE
:101C1000FEF7BAFB9DED040B53EC102BFEF7B4FB63
:101C200041EC100B8DED040B46EC105B9DED081B99
:101C300051EC100B53EC112BFEF74DFC41EC100B4B
:101C40008DED020B9DED5C0B53EC102B9DED0A0B03
:101C500051EC100BFEF73FFC9DED141B53EC112BC8
:101C6000FEF736FC9DED020B53EC102BFEF78CFBC0
:101C70000E46054653EC1E2B51EC1F0BFEF72BFCBA
:101C8000834653EC192B0B91FEF725FC9DED0C1BA5
:101C900053EC112BFEF71FFC41EC100B8DED020BEA
:101CA0009DED040B53EC102B9DED180B51EC100B1C
:101CB000FEF711FC9DED020B53EC102BFEF705FC1B
:101CC000CDE94C019DED180B53EC1E2B51EC100B84
:101CD000FEF701FC0746894653EC192B0E91FEF7DF
:101CE000FAFB9DED0C1B53EC112BFEF7F4FB41ECC2
:101CF000100B51EC1F0B8DED080B9DED040B53ECFD
:101D0000102BFEF7E8FB9DED080B53EC102BFEF7B4
:101D10003BFB0DF59C7853EC1B2B88E8630051ECE2
:101D20001F0BFEF7D8FB41EC110B53EC182B8DED7C
:101D3000041B9DED180B51EC100BFEF7CCFB8046FD
:101D400053EC1E2B0C91FEF7C6FB9DED041B53ECD0
:101D5000112BFEF7BAFB41EC100B51EC1A0B8DED79
:101D6000580B9DED180B53EC102BFEF7B4FB53EC06
:101D7000182BFEF7B0FB53EC1B2BFEF7ACFB41EC32
:101D8000100B53EC1F2B8DED120B51EC1A0BFEF7C1
:101D9000A2FB054653EC1E2B0491FEF79CFB41EC85
:101DA000100B8DED080B9DED100B53EC102B9DEDE2
:101DB000180B51EC100BFEF78EFB064653EC192B5B
:101DC0000691FEF788FB9DED080B53EC102BFEF7F8
:101DD000DBFA9DED120B53EC102BFEF7D5FA41EC1C
:101DE000100B53EC182B8DED160B51EC1F0BFEF75F
:101DF00072FB824653EC1E2B0991FEF76CFB41EC03
:101E0000100B53EC1B2B8DED120B9DED180B51ECB1
:101E1000100BFEF760FB9DED120B53EC102BFEF741
:101E2000B3FA41EC100B53EC182B8DED120B049907
:101E300041EC105B51EC100BFEF74DFB53EC1B2BF0
:101E4000FEF749FB41EC110B49EC107B8DED141BA7
:101E500053EC1A2B51EC100BFEF73DFB41EC100B31
:101E600051EC1F0B8DED020B9DED100B53EC102B65
:101E7000FEF731FB814653EC192B0591FEF72BFB46
:101E80009DED020B53EC102BFEF71FFB9DED141B79
:101E900053EC112BFEF778FA41EC100B53EC1E2B90
:101EA0008DED180B9DED100B51EC100BFEF713FB95
:101EB00041EC1E0B53EC192B51EC180BFEF70BFBEE
:101EC0009DED100B41EC1F0B53EC1B2B51EC100B39
:101ED000FEF701FB054653EC1A2B0391FEF7FBFAC4
:101EE00053EC1F2BFEF7F1FA41EC1F0B0C9953EC4E
:101EF0001B2B41EC108B51EC100BFEF7ECFA53EC62
:101F0000192BFEF7E8FA41EC110B53EC192B8DED70
:101F10000C1B0B9941EC10BB51EC100BFEF7DBFADC
:101F200041EC100B53EC1A2B8DED0A0B069941EC8A
:101F3000106B51EC100BFEF7CEFA9DED0A0B53EC33
:101F4000102BFEF7C2FA9DED0C1B53EC112BFEF784
:101F5000BCFACDE92A019DED160B51EC1C0B53EC9C
:101F6000102BFEF7B8FA41EC100B51EC1D0B8DED68
:101F7000060B9DED580B53EC102BFEF7ACFA9DEDC4
:101F8000060B53EC102BFEF7FFF9CDE92C019DED6C
:101F9000580B51EC1C0B53EC102BFEF79CFA41EC48
:101FA000100B51EC1D0B8DED060B9DED160B53EC3C
:101FB000102BFEF790FA9DED060B53EC102BFEF75D
:101FC00084FACDE92E01099953EC1B2B41EC10AB9F
:101FD00051EC100BFEF77FFA53EC192BFEF77BFA4E
:101FE00041EC1B0B0E9953EC192B41EC107B51EC7F
:101FF000100BFEF770FA41EC100B53EC1A2B8DED21
:10200000080B059941EC109B51EC100BFEF763FA9D
:102010009DED080B53EC102BFEF7B6F953EC1B2B80
:10202000FEF753FACDE930019DED180B51EC1C0B76
:1020300053EC102BFEF74FFA9DED120B41EC1B0BEE
:1020400053EC102B51EC1D0BFEF745FA53EC1B2BF8
:10205000FEF79AF9CDE932019DED120B51EC1C0B04
:1020600053EC102BFEF737FA9DED180B41EC1B0BD0
:1020700053EC102B51EC1D0BFEF72DFA53EC1B2BE0
:10208000FEF723FACDE93401039953EC192B41EC07
:10209000105B51EC100BFEF71EFA41EC190B51ECE2
:1020A000180B81F0004153EC1A2BFEF714FA53EC95
:1020B000192BFEF70AFACDE9360153EC1F2B51EC30
:1020C0001C0BFEF708FA41EC180B53EC1E2B51ECDD
:1020D0001D0BFEF700FA53EC182BFEF755F9CDE96E
:1020E000380153EC1E2B51EC1C0BFEF7F4F941ECBC
:1020F000180B53EC1F2B51EC1D0BFEF7ECF953ECB6
:10210000182BFEF7E2F9CDE93A0104F1180626ABE7
:1021100096EC060B22AA24A92AA803F0CDFD9DED7A
:10212000240B18348DED520B9DED220B40A98DED43
:10213000540B9DED260B4CA88DED560B769A94EC26
:10214000060B1DF099F90024769800EBC40595ED77
:10215000000B1BF0CBFF641C85ED000B062CF3DBA2
:102160000020A7E42DE9F04F1C462DED108BEFB0B9
:102170000B46064615461CAA30A990ED000B8DEDC6
:10218000300B90ED020B8DED320B90ED040B8DEDCD
:10219000340B90ED060B8DED360B90ED080B8DEDAD
:1021A000380B90ED0A0B03F118008DED3A0B90EC13
:1021B000060B1846FEF7B8FE9DED200B9DED1C9B0F
:1021C0009DED1ECB8DED3C0B9DED220B4FF0000ADB
:1021D0008DED160B9DED240B8DED1A0B9DED260B51
:1021E0008DED180B96ED0C0B8DED2C0B96ED10ABC9
:1021F00096ED1CBB96ED24FB96ED28DB96ED30EBBF
:1022000096ED3C8B95ED040B9FEDFE1B51EC100BF6
:1022100053EC112BFEF7AAFA01D24FF0020A95ED0A
:10222000080B9FEDFA1B51EC100B53EC112BFEF732
:102230009DFA01D24AF0080A9FEDF40B51EC1A0BFB
:1022400053EC102BFEF792FA29D39FEDF00B51ECD3
:102250001B0B53EC102BFEF789FA20D99FEDEB0BEB
:1022600051EC1D0B53EC102BFEF780FA17D353ECF7
:102270001E2B51EC1F0BFEF787F883469FEDE3EB17
:10228000019153EC1E2BFEF771FA08D99FEDDF0B7D
:1022900051EC180B53EC102BFEF768FA06D840F2FD
:1022A000FD306FB0BDEC108BBDE8F08F9DED182BAD
:1022B0009DED1A1B9DED160B04A802F095FD9DEDFA
:1022C000040B51EC180B53EC102BFEF704F953ECF4
:1022D000192BFEF7FDF89DED0A0B41EC190B53ECA1
:1022E000102B51EC180BFEF7F6F853EC1C2BFEF7F5
:1022F000EFF89DED100B41EC1F0B53EC102B51EC44
:10230000180BFEF7E8F89DED3C1B53EC112BFEF784
:10231000DFF841EC1E0BB0EE490AF0EE690A21F03D
:102320002FFF9FEDBC8B51EC100B53EC182BFEF7DD
:102330001DFA11D2B0EE4F0AF0EE6F0A21F020FF25
:1023400053EC182B51EC100BFEF710FA04D295ED5C
:10235000000B84ED000B19E0B0EE491AF0EE691A9B
:10236000B0EE4F0AF0EE6F0A21F002FC9FEDAB1BBE
:1023700051EC100B53EC112BFEF7ADF89FEDA91BA0
:1023800053EC112BFEF719F9C4E9000195ED001B80
:1023900094ED000B09F034FA84ED000B53EC1D2B87
:1023A00051EC1D0BFEF797F841EC1C0B019941EC29
:1023B00010BB53EC102B51EC100BFEF78CF853ECC8
:1023C0001C2BFDF7E1FF41EC100B22F0E1FDB0EE1C
:1023D00040CAF0EE60CA53EC1A2B51EC1E0BFEF70C
:1023E00074F841EC1E0B53EC1F2B51EC1F0BFEF746
:1023F00072F841EC1A0B53EC192B51EC190BFEF748
:102400006AF853EC1A2BFDF7BFFF41EC100B22F0DA
:10241000BFFDB0EE40AAF0EE60AAB0EE491AF0EEB1
:10242000691AB0EE4F0AF0EE6F0A21F0A1FB9FEDA2
:102430007B1B51EC100B53EC112BFEF74CF89FED6E
:10244000799B53EC192BFEF7B8F894ED001B53EC75
:10245000112BFEF73DF841EC100B9FED6C1B09F0C2
:102460008DF921F08DFE9FED711B51EC100B53EC9B
:10247000112BFEF793F905D251EC1A0B81F00041B4
:1024800041EC1A0B9DED2C0B51EC1A0B53EC102B5D
:10249000FEF71BF841EC1F0B53EC1E2B51EC1E0BEF
:1024A000FEF719F841EC1A0B53EC1F2B51EC1F0BE4
:1024B000FEF711F853EC1A2BFDF766FF41EC100BF9
:1024C00022F066FDB0EE40AAF0EE60AA53EC1C2BA1
:1024D00051EC1B0BFDF758FF884648EC100B0646E5
:1024E00053EC182B51EC100BFDF74EFF53EC1A2B4D
:1024F000FEF73CF918D353EC1C2B51EC1B0BFDF7EA
:10250000E4FF8946074649EC100B21F039FE9FEDA8
:10251000411B51EC100B53EC112BFDF7D6FF53EC84
:102520001A2BFEF73BF902D240F2FE30B9E648EC36
:10253000106B53EC1A2B51EC100BFEF717F902D26B
:1025400048EC1A6B12E049EC107B21F019FE53ECB9
:102550001A2B51EC100BFEF721F907D249EC107B36
:1025600021F00EFEB0EE40AAF0EE60AAB0EE4F1AD7
:10257000F0EE6F1AB0EE4E0AF0EE6E0A21F0F8FAA5
:102580009FED268B51EC100B53EC182BFDF7A3FF9E
:1025900053EC192BFEF711F89FED260B41EC1E0BA7
:1025A00053EC102B51EC1B0BFDF795FF814653ECC0
:1025B0001A2B2A91FDF78FFF41EC100B53EC1C2BCB
:1025C0008DED660B51EC1C0BFDF785FF804641EC51
:1025D0001F0B1B9153EC1B2B51EC1B0BFDF77BFFCF
:1025E000064641EC1B0B2B9153EC1A2B51EC1A0BAA
:1025F000FDF771FF074653EC1B2B2D91FDF7C4FE31
:102600001CE0000000000000008056C00000000038
:1026100000000000F168E388B5F8E43E0000000027
:1026200000806640112D4454FB2109400000000049
:1026300000805640000000000000004053EC1F2BBB
:10264000FDF743FF9DED660B53EC102BFDF7B5FF37
:1026500041EC1A0B53EC1A2BFDF73DFF9FEDFEFBEF
:1026600053EC1F2BFDF734FF41EC100B22F090FCD4
:10267000B0EE4A1AF0EE6A1A21F07AFA53EC182BEF
:1026800051EC100BFDF727FF53EC192BFDF795FFCD
:1026900041EC1A0B2A9953EC1C2B41EC109B51EC8A
:1026A000100BFDF718FF41EC1C0B2D9941EC1B7B27
:1026B0001B9941EC108B2B9953EC102B41EC116BB7
:1026C00051EC110BFDF760FE53EC1B2BFDF7FDFEEB
:1026D00053EC1C2BFDF771FF41EC1B0B53EC1B2B38
:1026E000FDF7F9FE53EC1F2BFDF7F2FE41EC100B4A
:1026F00022F04EFCB0EE4B1AF0EE6B1A21F038FAD5
:1027000053EC182B51EC100BFDF7E5FE53EC192B95
:10271000FDF753FF53EC182BFDF7DAFE41EC1B0BD2
:102720001FED3E0B5FEA8A7053EC1E2B51EC100B31
:1027300025D5FDF7CAFE53EC1A2BFDF725FEC4E99B
:1027400002010199B0EE4D1A41EC10BBF0EE6D1A8A
:1027500021F00EFA53EC182B51EC100BFDF7BBFED9
:1027600053EC192BFDF729FF41EC1A0B51EC1B0B15
:1027700081F0004153EC1A2BFDF7A7FE1EE0FDF798
:10278000A4FE53EC1A2BFDF7A0FEC4E90201019947
:10279000B0EE4D1A41EC10BBF0EE6D1A21F0E8F9E5
:1027A00053EC182B51EC100BFDF795FE53EC192B45
:1027B000FDF703FF53EC1B2BFDF78AFEC4E9040170
:1027C0005FF0000604EBC60797ED000B1BF08EFCD4
:1027D000761C87ED000B032EF4DB94ED041B94EDC7
:1027E000020B53EC112B51EC100BFDF7CDFD94EDCA
:1027F00000AB53EC192BFDF76EFE894649EC100B2C
:10280000074653EC182B51EC100BFDF7D6FE41ECAC
:10281000100B21F0A5FAB0EE40BAF0EE60BA53EC1E
:10282000192B51EC1A0BFDF756FE884648EC100B9D
:10283000064653EC182B51EC100BFDF7BEFE41EC95
:10284000100B21F08DFA53EC1B2B51EC100BFDF704
:1028500042FE48EC106BCDE93E0153EC182B51ECD5
:10286000100BFDF7AAFE41EC100B22F02DFB51ECF2
:10287000100B81F0004148EC106BCDE9400153ECA6
:10288000182B51EC100BFDF798FE41EC100B21F0CA
:1028900067FA49EC117BB0EE40AAF0EE60AA53EC67
:1028A000182B51EC110BFDF788FE41EC100B22F0B8
:1028B0000BFB53EC1A2B51EC100BFDF70CFE48EC04
:1028C000106BCDE9420153EC182B51EC100BFDF7C6
:1028D00074FE41EC100B22F0F7FA49EC117BB0EEDC
:1028E00040AAF0EE60AA53EC182B51EC110BFDF747
:1028F00064FE41EC100B21F033FAB0EE401AF0EE1A
:10290000601A53EC1A2B51EC110BFDF7E4FD48EC67
:10291000106BCDE9440153EC182B51EC100BFDF773
:102920004CFE41EC100B21F01BFA8DED460B48ECF0
:10293000106B53EC182B51EC100BFDF73EFE41ECE5
:10294000100B22F0C1FA49EC117BB0EE40AAF0EE78
:1029500060AA53EC182B51EC110BFDF72EFE41EC45
:10296000100B22F0B1FA53EC1A2B51EC100BFDF7BF
:10297000B2FD49EC107BCDE9480153EC182B51EC2A
:10298000100BFDF71AFE41EC100B22F09DFA51ECF2
:10299000100B81F000411FEDE30BCDE94A018DEDF5
:1029A0004C0B49EC107B53EC182B51EC100BFDF742
:1029B00004FE41EC100B21F0D3F98DED4E0B9DED93
:1029C000441B9DED400B8DED401B8DED440B9DEDAB
:1029D0004A1B9DED420B8DED421B8DED4A0B9DED8B
:1029E0004C1B9DED480B8DED481B8DED4C0B50AAFB
:1029F00004A93EA807F058F895ED080B95ED06EBF5
:102A00008DED6A0B95ED0A0B8DED6C0B9DED500B6A
:102A100053EC102B51EC100BFDF75DFD53EC1F2B0D
:102A2000FDF756FD41EC100B22F0B2FA9DED501B64
:102A300021F09EF853EC182B51EC100BFDF74BFDD9
:102A400053EC192BFDF7B9FD9DED500B41EC1A0B22
:102A500053EC102B04E00000000000000000F03FE9
:102A600051EC100BFDF737FD53EC1F2BFDF730FD3C
:102A700041EC100B22F08CFA51EC100B81F000416C
:102A800041EC100B9DED501B21F072F853EC182B0C
:102A900051EC100BFDF71FFD53EC192BFDF78DFDCD
:102AA00041EC1B0BB0EE4A0AF0EE6A0A21F068FB1B
:102AB0009FEDDC1B51EC100B53EC112BFDF76EFE60
:102AC00064D29DED541B9DED520B21F051F853EC57
:102AD000182B51EC100BFDF7FEFC53EC192BFDF7F6
:102AE0006CFD9DED540B8946804651EC100B81F036
:102AF00000419DED520B41EC1C0B51EC100B81F091
:102B0000004141EC100BB0EE4C1AF0EE6C1A21F0C3
:102B10002FF853EC182B51EC100BFDF7DCFC53ECA9
:102B2000192BFDF74AFD9DED5C0B0F46064651EC57
:102B3000100B81F0004141EC110B9DED560B21F083
:102B400017F853EC182B51EC100BFDF7C4FC53ECA9
:102B5000192BFDF732FD9DED560B41EC1C0B51EC92
:102B6000100B81F0004141EC100B9DED5C1B20F03F
:102B7000FFFF53EC182B51EC100BFDF7ACFC53ECA2
:102B8000192BFDF71AFD41EC1D0B25E0B0EE4ECAE6
:102B9000F0EE6ECA9DED5A0BB0EE4CDAF0EE6CDA48
:102BA00051EC100B81F0004141EC100B9DED601BCE
:102BB00020F0DEFF53EC182B51EC100BFDF78BFCD3
:102BC00053EC192BFDF7F9FC53EC1E2BFDF77DFCA4
:102BD0000F460646B946B04695ED061BB0EE4C0AC8
:102BE000F0EE6C0A08F0CAFDB0EE408AF0EE608AA2
:102BF00095ED061BB0EE4D0AF0EE6D0A08F0BEFD35
:102C0000B0EE40DAF0EE60DA95ED0A1B49EC108B7D
:102C100008F0B4FDB0EE40CAF0EE60CA95ED0A1BB4
:102C200047EC106B08F0AAFDB0EE409AF0EE609A07
:102C30009DED6C0B51EC1C0B53EC102BFDF745FC80
:102C400041EC100B21F09CFA8DED660B9DED6A1B9B
:102C5000B0EE4A0AF0EE6A0A53EC112B51EC100B5D
:102C6000FDF733FC41EC100B21F08AFAB0EE40FA8C
:102C7000F0EE60FA53EC1E2B51EC180BFDF725FC1F
:102C800041EC100B21F07CFAB0EE401AF0EE601A25
:102C900053EC1F2B51EC110BFDF776FB9DED660BF2
:102CA00053EC102BFDF770FB9DED6C0B41EC1F0BF3
:102CB00053EC102B51EC190BFDF707FC41EC100BFA
:102CC00021F05EFA8DED2E0B9DED6A1BB0EE4B0AE6
:102CD000F0EE6B0A53EC112B51EC100BFDF7F5FBEA
:102CE00041EC100B21F04CFA8DED180B53EC1E2B20
:102CF00051EC1D0BFDF7E9FB41EC100B21F040FA04
:102D0000B0EE401AF0EE601A9DED180B51EC110B6D
:102D100053EC102BFDF738FB9DED2E0B53EC102BD5
:102D2000FDF732FB41EC1E0B5FEA0A709FED3F0B93
:102D300051EC1A0B53EC102B25D5FDF717FD08D2DB
:102D400051EC1B0B9FED390B53EC102BFDF726FDBF
:102D500061D951EC1B0B9FED350B53EC102BFDF79C
:102D600005FD08D251EC1A0B9FED300B53EC102BE4
:102D7000FDF714FD25D953EC1E2B51EC1F0BFDF76D
:102D8000F5FC1ED847E0FDF709FD08D851EC1B0BF8
:102D90009FED260B53EC102BFDF7E8FC3BD351ECD9
:102DA0001B0B9FED220B53EC102BFDF7F7FCE2D829
:102DB00051EC1A0B9FED1D0B53EC102BFDF7D6FCBD
:102DC000D9D284ED06DB84ED08BB84ED0A9B00BFFD
:102DD00095ED061B94ED060B08F0D0FC84ED060B78
:102DE00095ED0A1B94ED0A0B08F0C8FC84ED0A0B64
:102DF0005FF0030504EBC50696ED000B1BF076F9BA
:102E00006D1C86ED000B062DF4DB6FB00020BDECD1
:102E1000108BBDE8F08F84ED068B84ED08AB84ED5C
:102E20000ACBD5E7F168E388B5F8E43E000000007E
:102E3000000000002DE9F04F14462DED108BBDB0C1
:102E4000054691ED081B91ED000B91ED029B91ED74
:102E500004FB91ED06EB8DED021B9FEDFEDB51ECCB
:102E6000100B53EC1D2BFDF736FB0E4646EC100BFA
:102E700007469FEDFA8B51EC100B53EC182BFDF726
:102E80009CFB41EC100B20F06BFFB0EE40CAF0EE63
:102E900060CA46EC107B53EC182B51EC100BFDF77D
:102EA0008CFB41EC100B22F00FF8B0EE40BAF0EEC4
:102EB00060BA53EC1D2B51EC190BFDF70CFB0F46C0
:102EC00047EC100B064653EC182B51EC100BFDF79A
:102ED00074FB41EC100B20F043FFB0EE40AAF0EE83
:102EE00060AA47EC106B53EC182B51EC100BFDF75C
:102EF00064FB41EC100B21F0E7FFB0EE409AF0EEDE
:102F0000609A53EC1D2B51EC1F0BFDF7E4FA0F46B2
:102F100047EC100B064653EC182B51EC100BFDF749
:102F20004CFB41EC100B20F01BFF8DED220B47EC0E
:102F3000106B53EC182B51EC100BFDF73EFB41ECE2
:102F4000100B21F0C1FF8DED200B53EC1D2B51EC2C
:102F50001E0BFDF7C0FA0F4647EC100B064653EC6C
:102F6000182B51EC100BFDF728FB41EC100B20F057
:102F7000F7FE8DED360B47EC106B53EC182B51EC34
:102F8000100BFDF71AFB41EC100B21F09DFF8DEDAE
:102F9000180B9DED021B53EC1D2B51EC110BFDF793
:102FA0009AFA0F4647EC100B064653EC182B51ECDF
:102FB000100BFDF702FB41EC100B20F0D1FE8DED64
:102FC000100B47EC106B53EC182B51EC100BFDF76A
:102FD000F4FA41EC100B21F077FF8DED1C0B95ED11
:102FE000240B95ED0C8B95ED10FB95ED1CEB8DED09
:102FF0000C0B95ED280B51EC1F0B8DED260B95ED71
:10300000300B8DED000B9FED970B95ED3CDB53ECFA
:10301000102BFDF7ABFB2FD39FED920B51EC1E0B4A
:1030200053EC102BFDF7A2FB26D99FED8E0B53EC32
:10303000102B9DED260B51EC100BFDF797FB1BD3CE
:103040009DED000B53EC102B9DED0C0B51EC100B78
:10305000FDF79AF982469FED831B039153EC112BE8
:10306000FDF784FB08D99FED7F0B51EC1D0B53EC52
:10307000102BFDF77BFB06D840F2FD303DB0BDECD8
:10308000108BBDE8F08F9FED770B53EC182B84ED80
:10309000000B84ED020B84ED040B51EC1C0B583437
:1030A000FDF719FA44E90A0153EC182B51EC1B0BFC
:1030B000FDF711FA44E9080104ED06FB53EC1E2B61
:1030C00051EC190BFDF707FA0F4647EC100B0646BB
:1030D00053EC182B51EC100BFDF756F953EC1C2B4D
:1030E000FDF7F9F947EC106BC4E9020153EC182B1A
:1030F00051EC100BFDF748F953EC1B2BFDF7EBF9E6
:10310000C4E9040153EC1E2B51EC1A0BFDF7E3F953
:1031100053EC1F2BFDF738F9C4E906019DED260B92
:1031200053EC102B9DED200B51EC100BFDF7D3F958
:1031300041EC100B0A918DED0E0B9DED0C0B8146B1
:1031400053EC102B9DED220B51EC100BFDF7C3F946
:103150009DED0E0B53EC102BFDF716F941EC100B07
:103160008DED1E0B9DED0C0B53EC102B9DED200BEC
:1031700051EC100BFDF7AFF941EC110B8DED0C1B71
:103180009DED260B53EC102B9DED220B51EC100BFB
:10319000FDF7A1F90F919DED0C1B804653EC112B0F
:1031A000FDF793F953EC1E2BFDF7EEF841EC100BF5
:1031B00051EC190B8DED280B53EC102BFDF78BF90F
:1031C00041EC100B01918DED3A0B9DED1E0B074666
:1031D00053EC102B51EC1A0BFDF77DF98B464BECA1
:1031E000110B9DED3A0B064653EC102B51EC110BD5
:1031F000FDF7CAF853EC182BFDF7C6F853EC1C2B5F
:10320000FDF769F9C4E90E0101994BEC116B41EC32
:10321000107B51EC110B53EC102BFDF7B5F853EC70
:10322000182BFDF7B1F853EC1B2BFDF754F9C4E94B
:1032300010019DED280B51EC1A0B53EC102BFDF7F0
:103240004AF941EC100B8DED000B9DED1E0B53EC7C
:10325000102B0BE0112D4454FB210940000000000D
:1032600000806640000000000000000051EC190BD7
:10327000FDF731F953EC1F2BFDF72AF99DED000BFB
:1032800053EC102BFDF780F8C4E912010A9941ECC8
:10329000109B8DED000B03999DED221B41EC10ABB3
:1032A00053EC112B51EC100BFDF715F99DED000BB4
:1032B00053EC102BFDF768F841EC100B8DED1E0B55
:1032C00003999DED201B41EC10AB53EC112B51ECFD
:1032D000100BFDF700F941EC100B0F9953EC102B7C
:1032E00041EC118B51EC110BFDF7EFF853EC1E2B59
:1032F000FDF74AF841EC100B51EC190B8DED280B42
:1033000053EC102BFDF7E7F8894649EC100B074604
:103310008DED0E0B9DED1E0B51EC1A0B53EC102B8B
:10332000FDF7D9F8884648EC110B9DED0E0B0646CB
:1033300053EC102B51EC110BFDF726F853EC182B26
:10334000FDF722F853EC1C2BFDF7C5F849EC107B78
:1033500048EC116BC4E91A0153EC102B51EC110B22
:10336000FDF712F853EC182BFDF70EF853EC1B2B5E
:10337000FDF7B1F8C4E91C019DED280B51EC1A0BC7
:1033800053EC102BFDF7A7F841EC100B51EC190B87
:103390008DED000B9DED1E0B53EC102BFDF79BF8F4
:1033A00053EC1F2BFDF794F89DED000B53EC102B05
:1033B000FCF7EAFFC4E91E019DED1C0B53EC102B3A
:1033C0009DED360B51EC100BFDF785F8884648EC67
:1033D000100B064653EC1D2B51EC100BFDF77BF840
:1033E0009DED261B53EC112BFDF772F89DED201B74
:1033F00053EC112BFDF76FF841EC110B53EC1D2B27
:103400008DED0C1B9DED100B51EC100BFDF763F8CF
:103410008946039949EC100B41EC11AB074653EC7C
:10342000102B51EC110BFCF7AFFF9DED220B53EC71
:10343000102BFDF750F89DED0C1B53EC112BFCF7F6
:10344000A3FF41EC100B49EC117B8DED1E0B039992
:1034500053EC112B41EC10AB51EC100BFCF794FF2B
:103460009DED201B53EC112BFDF735F841EC100BB3
:1034700053EC1D2B8DED020B48EC106B51EC100B37
:10348000FDF729F89DED261B53EC112BFDF720F8D5
:103490009DED221B53EC112BFDF71DF89DED020B4A
:1034A00053EC102BFDF711F853EC1E2BFCF76CFFBF
:1034B0009DED180B41EC1E0B53EC102B51EC1B0B2C
:1034C000FDF709F89DED1C1B53EC112BFDF703F8DC
:1034D00053EC1D2BFCF7FFFF41EC100B53EC1E2BA4
:1034E0008DED0C0B51EC190BFCF7F5FF894649ECFF
:1034F000100B07468DED0A0B9DED1E0B51EC1A0BC0
:1035000053EC102BFCF7E7FF884648EC110B9DEDC0
:103510000A0B064653EC102B51EC110BFCF734FF51
:1035200053EC182BFCF730FF53EC1C2BFCF7D3FFAC
:103530009DED0C0B53EC102BFCF7C7FFC4E92601E3
:103540009DED180B51EC1C0B53EC102BFCF7C3FF3B
:103550009DED1C1B53EC112BFCF7BDFF53EC1D2BF9
:10356000FCF7B9FF49EC107B48EC116B41EC1C0BEC
:1035700053EC102B51EC110BFCF706FF53EC182BFE
:10358000FCF702FF53EC1B2BFCF7A5FF53EC1C2BA5
:10359000FCF7FAFEC4E9280153EC1E2B51EC1A0B80
:1035A000FCF799FF9DED1E0B41EC180B53EC102B13
:1035B00051EC190BFCF78FFF53EC1F2BFCF788FF26
:1035C00053EC182BFCF7E0FEC4E92A0195ED000B43
:1035D00002AE8DED2A0B95ED020B8DED2C0B95EDCA
:1035E000040B8DED2E0B95ED060B8DED300B95ED4F
:1035F000080B8DED320B95ED0A0B00258DED340B8C
:10360000583C05EB4501002004EB011202EBC00120
:1036100091ED000B06EBC001401C81ED000B03286F
:10362000F4DB03201FEDF10B06EBC001401C81ED24
:10363000000B0628F8DBB0EE402AF0EE602AB0EE70
:10364000401AF0EE601A2AA902A81BF015FF6D1CA3
:10365000062DD6DB002011E51FB50121082009F059
:1036600065FB40F24730ADF8000000206321ADF863
:103670000800154CADF8020001918DF80A0069466A
:1036800020461CF0C1F94FF4A06008F037F9322051
:103690008DF80C0001218DF80D1003208DF80E001F
:1036A0008DF80F1003A808F0F7F8012120461CF050
:1036B00087F90122114620461CF09DF90121204680
:1036C0001CF081F91FBD0000000C004010B51CF07B
:1036D00013FA0020401C0A28FCDB10BD01481CF036
:1036E000D1B900006403002070B505F0EDF90024A5
:1036F000144DAA26285D00B92E55295D12A01FF091
:10370000DDFE641CE4B20C2CF4D3104840F2E371EB
:103710000160022141600F2181601321C1600C48CA
:103720005F21016040F213114160B5218160522197
:10373000C16001F001F9074C0020207022F0B0FFB9
:10374000207870BDB8960020257820002C6E0020CF
:10375000146E0020210100202DE9F04786B053218E
:10376000D1481CF07DF80121022009F0DFFA532036
:10377000ADF80000002442F20F70CC4D0190ADF87E
:103780000840ADF802408DF80A40694628461CF012
:103790003BF94FF4E06008F0B1F81D208DF80C0003
:1037A0008DF80D4003208DF80E0001268DF80F6076
:1037B00003A808F071F8012128461CF001F9012244
:1037C000114628461CF017F9012128461CF0FBF889
:1037D000B7A01FF073FEBD48007801281CD023F06D
:1037E0002BF8BB49086002F043F9BA4DB1462C7082
:1037F000012023F045F8400601D585F800906420AB
:1038000002F0B2FC022022F087FE641C2878142CFF
:1038100004D80028ECD003E0AFA040E1002820D07D
:10382000B3A01FF04BFE022022F05AFE23F00EFA46
:103830002978B7A01FF042FE012022F05FFE012090
:1038400023F0C4F900287CDDB64DB7A029681FF02D
:1038500035FE2868BD4C01281EDB0126DFF8F0820A
:1038600017E0BCA01BE100BF06EBC60000EB861012
:1038700004EB800707F586713246C0A01FF01EFEDC
:10388000D7E90212C4A01FF019FE761CB6B2C7F821
:10389000088128688642E7DD23F0AAF90126C44F93
:1038A00042F2107806E0B0B23B464246012123F0D6
:1038B000A5F9761C28688642F5D9BE4823F08CF914
:1038C000BDA01FF0FBFDDFF814A304215246002029
:1038D00023F0FAF900260AE006EBC60000EB86109A
:1038E000314634F82020BEA01FF0E8FD761C286881
:1038F0008642F1D90126A84655E000BF06EBC60076
:1039000000EB861004EB800534F8200095F8CB20FE
:10391000EB8CD5F8E410CDE90212CDE900302B8B09
:1039200005F586723146B4481FF0C8FDA988B3A0DA
:103930001FF0C4FDB8A0296A1FF0C0FDBCA0E96A51
:1039400000E0ABE01FF0BAFD00271BE005EB07101D
:103950000DF1080EB0F8841090F888C090F8873008
:1039600090F886208EE80E1090F8832090F8821050
:10397000CDE90012B0F88030C26F3946B2A01FF016
:103980009DFD7F1C95F80401B842DFD895F8BF0073
:10399000009095F8BE2095F8BC101346BAA01FF011
:1039A0008DFD761CB6B2D8F8000045468642A5DDEE
:1039B000BDA01FF083FD0820208023F065F94FF49F
:1039C000FA67384623F054F9002023F085F952466F
:1039D0000821002023F078F94CF25036384623F0C5
:1039E00047F932460821002023F06EF932460821BB
:1039F000012023F069F920880828EFD1B4F82401C8
:103A00000828EBD12188B3A01FF058FDB4F8241189
:103A1000B6A01FF053FD2088082806D0B9A01FF0DB
:103A20004DFD23F01FF9012634E0C1A01FF046FD33
:103A3000CA484946CA4EC0F800900120C94F2A68BA
:103A400011E000BF00EBC00303EB801304EB830322
:103A500006EB800C1D6A4CF8045C07EB8005DB6A02
:103A600045F8043C401C9042ECD9BF48017006B0B8
:103A7000BDE8F08706EBC60000EB861034F8202086
:103A8000082A06D004EB800031464388B7A01FF017
:103A900015FD761C28688642ECD9E8E7BEA006B082
:103AA000BDE8F0471FF00ABDFEFFFF7F00040040A5
:103AB00042616E745F686172647761726520696EDD
:103AC00069742073746172740D0A0000290100206A
:103AD0000401002004030020796F752063686F6F74
:103AE00073652073696D206D6F64650D0A000000B9
:103AF00068656C6C6F2045746865726E65742063D0
:103B000061626C65206973204F4B090D0A0000004B
:103B10000D0A536F636B6574204D6F64653A202501
:103B2000640D0A0068000020256420736C617665CE
:103B30007320666F756E6420616E6420636F6E66BD
:103B40006967757265642E0D0A0000006405002027
:103B5000D5EC010868656C6C6F2045746865726E01
:103B60006574206361626C65204E6F7420696E73AA
:103B70006572746564200D0A00000000466F756E62
:103B80006420257320617420706F736974696F6E8F
:103B90002025640D0A0000006D616E203D2025780F
:103BA000206174206964203D2025780D0A00000002
:103BB00090D0030040920020536C61766573206DB5
:103BC00061707065642C20737461746520746F205B
:103BD000534146455F4F502E0D0A000080841E0061
:103BE000536C6176652025642053746174653D30A3
:103BF00078253034780D0A00D405030820436F6E11
:103C00006669677572656420616464726573733A8E
:103C10002025780D0A000000204F757470757473AC
:103C200020616464726573733A2025780D0A000080
:103C300020496E7075747320616464726573733AA1
:103C40002025780D0A00000020464D4D5525316491
:103C5000204C733A2578204C6C3A253464204C7300
:103C6000623A2564204C65623A25642050733A25F7
:103C700078205073623A25642054793A257820419F
:103C800063743A25780D0A0020464D4D5566756ED1
:103C90006320303A256420313A256420323A256485
:103CA00020333A25640D0A005265717565737420DE
:103CB0006F7065726174696F6E616C20737461748A
:103CC0006520666F7220616C6C20736C6176657321
:103CD0000D0A0000536C61766520302053746174C6
:103CE000653D3078253034780D0A0000536C6176DC
:103CF0006520312053746174653D30782530347807
:103D00000D0A00004E6F7420616C6C20736C61763C
:103D100065732072656163686564206F70657261A8
:103D200074696F6E616C2073746174652E0D0A0086
:103D30004F7065726174696F6E616C207374617429
:103D400065207265616368656420666F7220616CCE
:103D50006C20736C617665732E0D0A0010010020D3
:103D6000649600207C96002008010020536C617648
:103D7000652025642053746174653D3078253034A6
:103D80007820537461747573436F64653D30782592
:103D90003034780D0A0000004E6F20736C61766538
:103DA0007320666F756E64210D0A00001CB5012139
:103DB000402008F0A3FF0F20009000208DF80400A1
:103DC00001208DF807006946014804F049FD1CBD3B
:103DD0000018024042B100BF10F8013B8B4201D1F4
:103DE000401E7047521EF7D10020704710B50023C7
:103DF00003E0CC5CC4545B1CDBB29342F9D310BD2E
:103E0000002301E0C1545B1C9342FBD37047FFF7D2
:103E100065BC000010B542F2F8110C48FCF71AFA24
:103E20004FF4D4710A48FCF715FA45F67821094891
:103E3000FCF710FA4FF474710748FCF70BFA0749C6
:103E40000020086006490120887010BD48700020DD
:103E5000E8EC001070920010A08E0010B00300205B
:103E6000180100202DE9F041754D00262DED028B43
:103E700095ED660B9FED738B51EC100B53EC182BEB
:103E8000FCF729FB714C8846074600BF48EC107BC5
:103E900051EC100BFCF73DFC44F82600761CF6B202
:103EA000062EF3D395ED640B002653EC182B51EC42
:103EB000100BFCF710FB88464FEA000748EC107B1C
:103EC00051EC100BFCF725FC04EB8601761CF6B2D6
:103ED0008861062EF2D300204FEA000104EB800235
:103EE000401CC0B211630628F8D35949002000BF16
:103EF00051F8202004EB8003401CC0B29A640628CD
:103F0000F6D3002605EB861053EC182B90ED060B2C
:103F100051EC100BFCF7DFFAFCF7FBFB04EB86011E
:103F2000761CF6B20866062EECD3002605EB86104A
:103F300053EC182B90ED040B51EC100BFCF7CBFA63
:103F4000FCF7E7FB04EB8601761CF6B28867062EC9
:103F5000ECD34049002000BF51F8202004EB80033F
:103F6000401CC0B2C3F890200628F5D33A499FED13
:103F70003B0A002001EB8002D2ED000A04EB800234
:103F8000401C60EE800AC0B20628FCEEE00AC2EDDA
:103F90002A0AEFD33248002590ED000B51EC100BAC
:103FA000FCF7B7FB04EB85016D1CEDB2C1F8C00056
:103FB000062DF7D32B48002590ED000B51EC100B8C
:103FC000FCF7A7FB04EB85016D1CEDB2C1F8D8002E
:103FD000062DF7D32448002590ED000B51EC100B73
:103FE000FCF797FB04EB85016D1CEDB2C1F8F00006
:103FF000062DF7D31D48002590ED000B51EC100B5A
:10400000FCF787FB04EB85016D1CEDB2C1F80801DC
:10401000062DF7D31649002004EB800351F8202029
:10402000401CC0B2C3F820210628F5D3BDEC028B9A
:104030005A22BDE8F04105490E481AF0DDB80000EB
:104040004870002000000000000059406C6B002008
:10405000E002002088010020700100200000C8421A
:10406000B8030020C0030020C8030020D0030020B4
:104070003070002000F00F0810B59AB0642101A83C
:10408000FCF7E8F8642101A8FCF7E4F822F0D4F882
:104090004FF4A06007F032FC1BF076FB4FF4E120F8
:1040A0002BF09EFEA82022F07DFB4FF4E134204649
:1040B0001CF0DCFC20461CF053FC2DA01CF00CFC7A
:1040C0002FA01CF0F7FB40F27E400090304B0A22FC
:1040D00030A101A81FF002FA01A81CF0FDFB3B492A
:1040E00001A81FF0FBF901A81CF0F6FB38A101A8FC
:1040F0001FF0F4F901A81CF0EFFBFFF7F5FA374CBD
:1041000037A101A822781FF0E9F901A81CF0E4FB0F
:1041100020780028FDD0002006231A4605210090B3
:1041200000F072F92AF0D2FE41F2883022F050FB02
:104130002EA01FF0C3F92AF0DDFF2AF0F5FC2AF0CB
:10414000D3FD00F067F82DA01CF0C6FB22F018F894
:1041500001212F480CF0AAFDFFF7FEFAFFF726FE1B
:10416000FFF7B4FAFFF778FA1BF0F2FB1AB010BDB4
:1041700068656C6C6F203438355F55360D0A000069
:1041800068656C6C6F203438355F55350D0A00005A
:10419000B700350177656C636F6D6520746F2042E1
:1041A000616E7420526F626F7420636F6E74726FF1
:1041B0006C3A207665723D25642C62646461746596
:1041C0003D25642C25640D0A000000008C050308C1
:1041D000636869702049443A000000002101002012
:1041E000617574683D25640D0A0000007265747580
:1041F000726E20746F20300D0A00000072656164D9
:104200007920746F20736574206D6F64650D0A00EA
:104210004870002005489FED040A002180ED010A46
:1042200001704170FFF7F6BD0AD7233C180100204A
:104230002DE9F04F8A462DED048B99B091468346C7
:1042400001460A259FED1E8B30226846FBF7E9FFE9
:1042500001242846FCF720FA0F4606460DF13008E7
:1042600047EC196B2046FCF717FA53EC192BFCF7B7
:10427000A4F941EC100B4B4652464146584604F017
:104280003DF852464146684605F06CFB53EC182B4E
:1042900051EC100BFCF778F841EC180B302241463A
:1042A0006846FBF7BEFF641CAC42D9DD19B0B0EE26
:1042B000480AF0EE680ABDEC048BBDE8F08F000000
:1042C00000000000000000002DE9F04789462DEDB8
:1042D000048B98B09046824601460A259FED1E8BBE
:1042E00030226846FBF79DFF012405EBD57627E0D9
:1042F0002846FCF7D1F941EC190B2046FCF7CCF924
:1043000053EC192BFCF759F941EC100B0CA943465F
:104310004A460F46504603F0F1FF4A463946684682
:1043200005F020FB53EC182B51EC100BFCF72CF88C
:1043300041EC180B302239466846FBF772FF641CCB
:10434000B4EB660FD4DD18B0B0EE480AF0EE680AA0
:10435000BDEC048BBDE8F087000000000000000009
:104360002DE9F04F91462DED048B134699B08A4606
:104370000A4683460A259FED1F8B69469FED1F0B5A
:1043800003F0BCFF06242846FCF786F90F460646D4
:104390000DF1300847EC196B2046FCF77DF953EC22
:1043A000192BFCF70AF941EC100B4B4652464146DB
:1043B000584603F0A3FF52464146684605F0D2FA3C
:1043C00053EC182B51EC100BFBF7DEFF41EC180BF4
:1043D000302241466846FBF724FF641CAC42D9DD1D
:1043E00019B0B0EE480AF0EE680ABDEC048BBDE8E7
:1043F000F08F00000000000000000000000000003E
:104400000000E03FFEE700002DE9F04F8BB08A4648
:1044100081461E46904601210220DDF850B008F08A
:104420006DFC0121880608F081FC4FF44050079094
:1044300002208DF8200000248DF8224003208DF802
:104440002100314F01258DF8235007A9384604F08B
:1044500007FA09220C21384604F053FA09220D21EB
:10446000384604F04EFA01214FF0C06008F05EFCBF
:10447000264F384600F088F8684600F0C5F98DF8F8
:1044800006408DF808408DF807408DF809508DF8EA
:1044900002B08DF80A408DF803908DF804808DF8F5
:1044A0000B408DF805A0ADF800606946384600F075
:1044B000EFF80E208DF816008DF817408DF8185083
:1044C000ADF80C40ADF81040ADF80E40ADF812401C
:1044D000ADF814408DF8195003A800F06BF80122D4
:1044E0000221384600F0CCF840208DF824008DF8E9
:1044F00025508DF826408DF8275009A807F0CCF9F3
:104500000BB00020BDE8F08F0004024000680040BE
:1045100000B585B06A460021024800F02DF905B0CB
:1045200000BD000000680040F0B585B000238DF8A4
:104530000830009001908DF809308DF80A20684607
:1045400004E0CC5CC5185B1CEC729BB29342F8D3C0
:104550000C4F0146384600F067F90646002440F645
:10456000FF7501E0641CA4B23146384600F0AEF994
:1045700008B9AC42F6D3AC4202D3012005B0F0BD7D
:104580000020FBE700680040094910B588424FF061
:10459000010101D14C0601E04FF08064204608F093
:1045A000D1FB2046BDE81040002108F0CBBB000045
:1045B00000640040F0B5827A012191402E4A1368D0
:1045C00043F0010313602C4B1C331C688C431C60AC
:1045D000294D067B294C0C35A6B92E688E432E60DA
:1045E0004688C78846EA0746877A04EBC707C7F8B4
:1045F00040660688878846EA0746877A04EBC7073D
:10460000C7F84466067B012E12D12E680E432E6039
:10461000867A056804EBC6064FEA3545C6F840566B
:10462000867A456804EBC6044FEA3545C4F844561B
:10463000114CC57A241D002D256806D00D43256038
:104640000D4C0589143415B104E08D43F7E7256856
:104650008D4325600589012D02D125680D43256014
:10466000407B012802D1186808431860106820F0C8
:1046700001001060F0BD00000066004000600040D6
:10468000002A426901D00A4300E08A434261704730
:1046900010B50368002223F002030360036843F0AF
:1046A000010303604FF6FF7300E0521C4468E40707
:1046B00001D19A42F9D14268D2073ED08A79012AC3
:1046C00002683CD022F080020260CA79012A0268A6
:1046D00038D022F0400202600A7A012A026834D0FF
:1046E00022F0200202604A7A012A026830D022F0C9
:1046F000100202608A7A012A02682CD022F0080295
:104700000260CA7A012A026828D022F004020260FC
:104710008A78CC78920742EA04620C7942EA044231
:104720004C79098842EA0452491E0A43C261016871
:1047300021F001010160002114E0002010BD42F0D1
:104740008002C1E742F04002C5E742F02002C9E71B
:1047500042F01002CDE742F00802D1E742F0040235
:10476000D5E7491C4268D20701D09942F9D1406887
:10477000C007E2D1012010BD10B500EB0113D3F842
:10478000B04114F004041472D3F8B04134D0E408FA
:10479000C2F80440D3F8B04104F002045472D3F8D4
:1047A000B44104F00F049472D3F8B441240AD474D1
:1047B000D3F8B841D472D3F8B841240A1473D3F8AB
:1047C000B841240C5473D3F8B841240E9473D3F831
:1047D000BC41D473D3F8BC41240A1474D3F8BC414F
:1047E000240C5474D3F8BC311B0E937439B1016995
:1047F00041F02001016110BD640D1460CAE7C16879
:1048000041F02001C16010BD00218171C1710172B0
:1048100041728172C1728170C170032101710221E4
:10482000417101210180704730B502460020936834
:104830005B0108D49068000101D5012003E0906875
:10484000C00037D5022002EB0012D2F8803103F00D
:104850000103C2F880310B7A73B3D2F880414D68FE
:104860001C434B7A43EAC5031C43C2F880418B7A50
:1048700003F00F038B72D2F8843123F00F03C2F8D8
:104880008431D2F884318C7A2343C2F88431CB7AD4
:10489000CC6843EA0423C2F88831CB7B096943EA38
:1048A0000121C2F88C11D2F8801141F00101C2F847
:1048B000801130BD042030BDD2F880314C7A2343C2
:1048C0000C8843EA4453C2F88031D0E7002221B17A
:1048D000012905D0022906D112E08268114801E0C1
:1048E0008268114802401149501A8A4214D00ADCE9
:1048F000A2B16FF0806010180FD002280CD10FE029
:1049000082680B48EEE7B0F5007F09D009494018EE
:1049100003D0B0F5003F03D000207047022070475D
:104920000120704703000004000300080001000894
:10493000000003100001FFF7F0B51E48017842782F
:10494000C37911448278C67AA1EB020EC17802794C
:1049500011444279891A82791A44037AA2EB030C32
:10496000427A837A1448D718BD1B028894B2828891
:10497000744493B2CB1A0289B4FBF3F392B2ACEB5A
:10498000020280891A4480B210442844A0F2DC70EC
:1049900000EB8010C0EB4012BB19084801EB036329
:1049A000074902600B6022F07F414160194381603A
:1049B000F0BD0000B89600202C6E0020446E002050
:1049C0002401002030B50C462DED0E8BA3B005461A
:1049D0009FEDA48B10AA00F1180107F06BFF04AA49
:1049E00004F11801204607F065FF10A9084603F0FE
:1049F00015F904A9B0EE40AAF0EE60AA084603F04B
:104A00000DF9B0EE409AF0EE609A53EC182B51EC91
:104A10001A0BFBF7ABFE09D253EC182B51EC190B18
:104A2000FBF7A4FE02D22146284617E153EC182BCF
:104A300051EC1A0BFBF79AFE02D22946204608E0F9
:104A400053EC182B51EC190BFBF790FE07D22146C3
:104A5000284607F09FFE23B0BDEC0E8B30BD04A9A5
:104A600010A803F0DBF8B0EE40BAF0EE60BA1CAA72
:104A70002946204607F01EFF10A91CA803F0CEF817
:104A8000B0EE40DAF0EE60DA04A91CA803F0C6F834
:104A9000B0EE40CAF0EE60CA53EC1B2B51EC1B0B7E
:104AA000FBF719FD41EC1E0B53EC192B51EC1A0BC3
:104AB000FBF711FD53EC1E2BFBF707FD41EC1E0B22
:104AC00053EC182BFBF752FE1AD29FED680BB0EE99
:104AD0004A4A8DED000B8DED02CBF0EE6A4AB0EE46
:104AE000493AF0EE693AB0EE4C2AF0EE6C2AB0EE9C
:104AF0004D1AF0EE6D1AB0EE4B0AF0EE6B0A43E081
:104B000053EC192B51EC1D0BFBF7E5FC41EC180B9A
:104B100053EC1B2B51EC1C0BFBF7DDFC53EC182B5F
:104B2000FBF7D3FC53EC1E2BFBF747FDCDE900014F
:104B300053EC1B2B51EC1D0BFBF7CDFC41EC180B80
:104B400053EC1A2B51EC1C0BFBF7C5FC53EC182B48
:104B5000FBF7BBFC53EC1E2BFBF72FFDB0EE4A4AD4
:104B6000F0EE6A4AB0EE493AF0EE693AB0EE4C2AFD
:104B7000F0EE6C2AB0EE4D1AF0EE6D1AB0EE4B0A64
:104B8000F0EE6B0ACDE9020102A9684600F072F866
:104B90009DED100B9DED008B53EC102B51EC180B81
:104BA000FBF799FC95ED001B53EC112BFBF7ECFB8D
:104BB000CDE90A019DED120B51EC180B53EC102BB3
:104BC000FBF789FC95ED021B53EC112BFBF7DCFB8B
:104BD000CDE90C019DED140B51EC180B53EC102B8F
:104BE000FBF779FC95ED041B53EC112BFBF7CCFB89
:104BF000CDE90E019DED040B9DED028B53EC102BC6
:104C000051EC180BFBF767FC94ED001B53EC112BD8
:104C1000FBF7BAFBCDE916019DED060B51EC180B25
:104C200053EC102BFBF757FC94ED021B53EC112BAC
:104C3000FBF7AAFBCDE918019DED080B51EC180B11
:104C400053EC102BFBF747FC94ED041B53EC112B9A
:104C5000FBF79AFBCDE91A0116A90AA804F0C4FED5
:104C6000F9E60000F168E388B5F8E43E00000000D2
:104C70000000000070B50D462DED0E8BB0EE44BA6D
:104C8000F0EE64BAB0EE43DAF0EE63DAB0EE42EA88
:104C9000F0EE62EAB0EE41CAF0EE61CAB0EE40AAB0
:104CA000F0EE60AA04469FED4C9B9FED4D8B90ED7E
:104CB000000B53EC192B51EC100BFBF76FFD08D3D5
:104CC00094ED000B53EC182B51EC100BFBF74EFD41
:104CD00031D294ED000B53EC192B51EC100BFBF778
:104CE0005DFD02D394ED000B05E0B0EE490AF0EE55
:104CF000690A84ED000B53EC182B51EC100BFBF7F9
:104D000035FD02D394ED000B05E0B0EE480AF0EE5D
:104D1000680A84ED000B53EC1A2B51EC100BFBF7D7
:104D2000DAFB53EC1E2BFBF72FFB53EC1D2BFBF791
:104D300044FCC5E9000195ED000B53EC182B51EC38
:104D4000100BFBF72BFD08D895ED000B53EC192B3E
:104D500051EC100BFBF70AFD3BD995ED000B53EC22
:104D6000192B51EC100BFBF719FD01D285ED009BBF
:104D700095ED000B53EC182B51EC100BFBF7F6FCE8
:104D800001D285ED008B95ED000B53EC1A2B51EC05
:104D9000100BFBF7A0FB53EC1C2BFBF796FB53EC23
:104DA0001B2BFBF70AFC41EC100B53EC192B84ED89
:104DB000000BFBF7F3FC01D284ED009B94ED000B9C
:104DC00053EC182B51EC100BFBF7D0FC01D284ED07
:104DD000008BBDEC0E8B70BD000000000000F03FAA
:104DE00000000000000000002DE9F04704462DED12
:104DF0000A8BB0EE42BAF0EE62BAB0EE40AAF0EE24
:104E000060AA9FEDFE9B51EC110B53EC192BFBF7A5
:104E100062FB8A464AEC110B07469FEDFA8B51EC78
:104E2000110B53EC182BFBF7C8FB41EC100B1EF0D9
:104E300097FFB0EE40CAF0EE60CA53EC192B51EC6C
:104E40001B0BFBF748FB884648EC110B064653EC5E
:104E5000182B51EC110BFBF7B0FB41EC100B1EF0C3
:104E60007FFFB0EE401AF0EE601A53EC1C2B51ECB1
:104E7000110BFBF730FBC4E9000153EC192B51EC8B
:104E80001A0BFBF728FB894649EC100B054653EC3F
:104E9000182B51EC100BFBF790FB41EC100B1EF0A4
:104EA0005FFFB0EE409AF0EE609A48EC106B53EC66
:104EB000182B51EC100BFBF780FB41EC100B20F092
:104EC00003F853EC192B51EC100BFBF704FB49ECE6
:104ED000105B41EC190B53EC182B51EC100BFBF74A
:104EE0006CFB41EC100B1FF0EFFF4AEC117BB0EEB6
:104EF00040AAF0EE60AA53EC182B51EC110BFBF713
:104F00005CFB41EC100B1FF0DFFF48EC116BB0EEC7
:104F100040BAF0EE60BA53EC182B51EC110BFBF7D2
:104F20004CFB41EC100B1EF01BFF53EC1B2B51EC08
:104F3000100BFBF7D0FA53EC1A2BFBF7CCFA53EC1F
:104F4000192BFBF7C2FA49EC105BC4E9020153ECE0
:104F5000182B51EC100BFBF730FB41EC100B1FF042
:104F6000B3FF48EC116BB0EE409AF0EE609A53EC50
:104F7000182B51EC110BFBF720FB41EC100B1FF031
:104F8000A3FF53EC192B51EC100BFBF7A4FA49ECDF
:104F9000105B41EC190B53EC182B51EC100BFBF789
:104FA0000CFB41EC100B1EF0DBFE4AEC117BB0EE6B
:104FB00040AAF0EE60AA53EC182B51EC110BFBF752
:104FC000FCFA41EC100B1FF07FFF48EC116BB0EEC8
:104FD00040BAF0EE60BA53EC182B51EC110BFBF712
:104FE000ECFA41EC100B1EF0BBFE53EC1B2B51EC0A
:104FF000100BFBF770FA53EC1A2BFBF76CFA53EC1F
:10500000192BFBF7C1F94AEC107BC4E9040153ECFE
:10501000182B51EC100BFBF7D0FA41EC100B1EF0E3
:105020009FFE48EC116BB0EE409AF0EE609A53ECA4
:10503000182B51EC110BFBF7C0FA41EC100B1FF0D1
:1050400043FFB0EE401AF0EE601A53EC192B51EC0E
:10505000110BFBF740FA49EC105BC4E9060153EC75
:10506000182B51EC100BFBF7A8FA41EC100B1EF0BB
:1050700077FE48EC116BB0EE409AF0EE609A53EC7C
:10508000182B51EC110BFBF798FA41EC100B1EF0AA
:1050900067FEB0EE401AF0EE601A53EC192B51EC9B
:1050A000110BFBF718FA49EC105B41EC190B53ECB0
:1050B000182B51EC100BFBF780FA41EC100B1FF092
:1050C00003FF4AEC117BB0EE40AAF0EE60AA53EC6D
:1050D000182B51EC110BFBF770FA41EC100B1FF081
:1050E000F3FE48EC116BB0EE40BAF0EE60BA53EC50
:1050F000182B51EC110BFBF760FA41EC100B1FF071
:10510000E3FE53EC1B2B51EC100BFBF7E4F953ECD3
:105110001A2BFBF7E0F953EC192BFBF735F949ECA7
:10512000105BC4E9080153EC182B51EC100BFBF792
:1051300044FA41EC100B1FF0C7FEB0EE409AF0EEBF
:10514000609A48EC106B53EC182B51EC100BFBF7EA
:1051500034FA41EC100B1EF003FEB0EE401AF0EEF4
:10516000601A53EC192B51EC110BFBF7B4F949EC15
:10517000105B41EC190B53EC182B51EC100BFBF7A7
:105180001CFA41EC100B1EF0EBFD4AEC117BB0EE6B
:1051900040AAF0EE60AA53EC182B51EC110BFBF770
:1051A0000CFA41EC100B1FF08FFEB0EE40BAF0EE9F
:1051B00060BA48EC106B53EC182B51EC100BFBF75A
:1051C000FCF941EC100B1FF07FFEB0EE401AF0EE40
:1051D000601A53EC1B2B51EC110BFBF77CF953ECD1
:1051E0001A2BFBF778F953EC192BFBF76EF94AEC05
:1051F000107B53EC182BC4E90A0107E0112D44542D
:10520000FB210940000000000080664051EC100BBB
:10521000FBF7D3F941EC100B1FF056FE51EC100BCD
:1052200081F0004149EC105BC4E90C0153EC182BF0
:1052300051EC100BFBF7C1F941EC100B1FF044FED1
:10524000B0EE409AF0EE609A4AEC107B53EC182BCB
:1052500051EC100BFBF7B1F941EC100B1EF080FD87
:10526000B0EE401AF0EE601A53EC192B51EC110B12
:10527000FBF731F949EC105BC4E90E0153EC182B34
:1052800051EC100BFBF799F941EC100B1EF068FD87
:10529000B0EE409AF0EE609A4AEC107B53EC182B7B
:1052A00051EC100BFBF789F941EC100B1EF058FD87
:1052B000B0EE401AF0EE601A53EC192B51EC110BC2
:1052C000FBF709F9C4E910010020BDEC0A8BBDE829
:1052D000F08700002DE9F04F15462DED0A8BA7B0A1
:1052E000B0EE40AAF0EE60AA0C46DDE93A6B9FED05
:1052F000FD8B9FEDFE9B01F58067012806D005F12F
:10530000300802287ED0032866D18BE0002B64D0C1
:1053100094EDAC0B53EC1A2B51EC100BFBF74DF941
:105320000F4647EC100B064653EC192B51EC100BB3
:10533000FBF7D1F841EC1A0B47EC196B002653EC44
:10534000192B51EC180BFBF7C0F88246069153EC71
:105350001A2B51EC180BFBF7B8F88B464FEA0009F3
:1053600004EBC60751EC1A0B97ED3C0B53EC102BDA
:10537000FBF7B1F84BEC109B97ED001B41EC180BC1
:1053800053EC112B51EC100BFBF7A5F853EC182B39
:10539000FAF7FAFF05EBC602904603C297ED3C0B05
:1053A00051EC190B53EC102BFBF795F841EC180B53
:1053B000069997ED001B41EC10AB53EC112B51EC0F
:1053C000100BFBF788F853EC182BFAF7DDFF761C6F
:1053D000C8E90C01032EC3DBE1E297ED120B53EC9D
:1053E0001A2B51EC100BFBF7E8F80F4647EC100BAB
:1053F000064653EC182B51EC100BFBF769F841EC07
:105400001A0B00E02EE147EC106B53EC192B51EC1A
:10541000100BFBF760F853EC182BFBF759F841EC35
:10542000190B8BE704F5C47004F5D87B1290002BA0
:105430007DD094EDAC0B53EC1A2B51EC100BFBF719
:10544000BCF8002653EC1A2BFBF745F88A46814638
:105450004AEC109B94ED601B51EC100B53EC112B9C
:10546000FBF7ABF841EC100B1FF02EFD94ED608BB9
:1054700051EC100B53EC182BFBF72DF804EBC6077F
:1054800097ED781B53EC112BFBF725F84AEC109B9A
:1054900041EC1A0B53EC182B51EC100BFBF78DF869
:1054A00041EC100B1EF05CFC94ED601B51EC100BFA
:1054B00053EC112BFBF70FF897ED721B53EC112BEC
:1054C000FBF709F897ED621B53EC112BFAF75CFF21
:1054D00053EC1A2BFAF758FF05EBC602761CC2E90B
:1054E0000C01032EB4DB0CAA4146129807F0E2F936
:1054F00004AA0CA9584600F05DFA04A806F032FA96
:1055000000260DF1100800BF08EBC60094EDAC1B9F
:1055100090ED000B53EC112B51EC100BFAF7DBFF65
:1055200053EC192BFAF7D7FF05EBC60700E00BE0A9
:1055300097ED0C1B53EC112BFAF7CAFF761CC7E949
:105540000001032EE0DB2AE297ED120B53EC1A2B3D
:1055500051EC100BFBF731F853EC182BFAF7B8FFAE
:10556000002653EC1A2BFAF7B6FF8A464FEA0009D9
:105570004AEC109B94ED601B51EC100B53EC112B7B
:10558000FBF71BF841EC100B1FF09EFC94ED608BB9
:1055900051EC100B53EC182BFAF79DFF04EBC608E7
:1055A00098ED781B53EC112BFAF795FF4AEC109B02
:1055B00041EC1A0B53EC182B51EC100BFAF7FDFFD2
:1055C00041EC100B1EF0CCFB94ED601B51EC100B6A
:1055D00053EC112BFAF77FFF98ED721B53EC112B54
:1055E000FAF779FF98ED621B53EC112BFAF7CCFE1A
:1055F00053EC1A2BFAF7C8FE05EBC602761CC2E97B
:105600000001032EB4DB04AA2946129807F052F9D0
:105610000CAA04A9584600F0CDF90CA806F0A2F98E
:1056200000240DF1300800BF08EBC40097ED120B09
:1056300090ED001B53EC102B51EC110BFAF74BFFC4
:1056400053EC192BFAF747FF05EBC40696ED001B48
:1056500053EC112BFAF798FE641CC6E90C01032CDD
:10566000E2DB9CE19FED23BB5BB194EDAC0B53EC13
:105670001A2B51EC100BFAF7A0FF41EC1A0B002784
:10568000F7E097ED120B53EC1A2B51EC100BFAF7D5
:1056900094FF53EC182BFAF71BFF41EC1A0B002078
:1056A00030E000BF04EBC10951EC1A0B99ED480B37
:1056B00053EC102BFAF70FFF41EC1C0B53EC1A2B99
:1056C00051EC180BFAF701FF99ED0C1B53EC112B61
:1056D000FAF701FF53EC1C2BFAF756FE05EBC80254
:1056E0000CE00000000000000000F03F000000009F
:1056F0000000E03F0000000000002440C2E93C013F
:1057000008F101008046014604F1F0008146B045F1
:10571000C8DB03460021584605F1F00200951AF057
:10572000A3FE97ED120B51EC180B53EC102BFAF76C
:1057300044FF53EC1B2BFAF740FF53EC1A2BFAF7FC
:1057400023FE41EC1A0B53EC182BFBF727F803D27E
:10575000B0EE48AAF0EE68AA002022E004EBC80AE6
:1057600051EC1A0B9AED480B53EC102BFAF7B3FEE1
:1057700041EC1B0B53EC1A2B51EC180BFAF7A5FE5E
:105780009AED0C1B53EC112BFAF7A5FE53EC1B2BD7
:10579000FAF7FAFD18AB03EBC802C2E9000108F101
:1057A00001008046B042D9DB04AE4B4618AA002166
:1057B000584600961AF058FEB04600240DF14006F7
:1057C00005EBC40090ED000B08EBC40053EC102B6C
:1057D00090ED001B51EC110BFAF777FE06EBC402BB
:1057E000641CC2E90001032CEADB10A806F0BAF839
:1057F0000024B04608EBC40097ED120B90ED001B9F
:1058000053EC102B51EC110BFAF765FE53EC192BEE
:10581000FAF761FE05EBC40696ED001B53EC112B65
:10582000FAF7B2FD641CC6E90C01032CE2DBB6E01A
:1058300004EBC70951EC1A0B99ED480B53EC102BF4
:10584000FAF749FE41EC1C0B53EC1A2B51EC180BE8
:10585000FAF73BFE99ED0C1B53EC112BFAF73BFECC
:1058600053EC1C2BFAF790FD05EBC7027F1CC2E935
:1058700024019FED4ECBB742DADB234605F19002BF
:1058800000215846CDF800801AF0EEFD94EDAC0BE7
:1058900051EC180B53EC102BFAF78FFE53EC1B2B2B
:1058A000FAF78BFE53EC1A2BFAF712FEB0EE4CBA55
:1058B000F0EE6CBA41EC1A0B53EC1B2BFAF756FFC7
:1058C00003D2B0EE4BAAF0EE6BAA002722E000BF95
:1058D00004EBC70851EC1A0B98ED480B53EC102B56
:1058E000FAF7F9FD41EC1B0B53EC1A2B51EC180B9A
:1058F000FAF7EBFD98ED0C1B53EC112BFAF7EBFDCF
:1059000053EC1B2BFAF740FD18AA02EBC7027F1CD1
:10591000C2E90001B742DBDB0CAF234618AA002125
:10592000584600971AF0A0FDB84600260DF1100762
:1059300005EBC60090ED0C1B08EBC60053EC112BD9
:1059400090ED000B51EC100BFAF7BFFD07EBC60210
:10595000761CC2E90001032EEADB04A806F002F877
:105960000026B84608EBC60094EDAC0B90ED001B8A
:1059700053EC102B51EC110BFAF7ADFD53EC192B36
:10598000FAF7A9FD05EBC60797ED0C1B53EC112B9D
:10599000FAF7FAFC761CC7E90001032EE2DB27B018
:1059A0000020BDEC0A8BBDE8F08F00000000000075
:1059B0000000000070B516462DED028B0C4691EDEF
:1059C000020B90ED041B054653EC102B51EC110B10
:1059D000FAF781FD94ED040B95ED021B41EC180BD9
:1059E00053EC102B51EC110BFAF775FD53EC182BFF
:1059F000FAF76BFDC6E9000194ED041B95ED000B71
:105A000053EC112B51EC100BFAF765FD94ED001BD4
:105A100095ED040B41EC180B53EC112B51EC100BD2
:105A2000FAF759FD53EC182BFAF74FFDC6E90201BE
:105A300094ED000B95ED021B53EC102B51EC110B68
:105A4000FAF749FD94ED021B95ED000B41EC180BA4
:105A500053EC112B51EC100BFAF73DFD53EC182BC6
:105A6000FAF733FDC6E904010020BDEC028B70BDDE
:105A700010B500F029F800F0F5F80349012048704E
:105A8000BDE8104000F002B80000002010B520F082
:105A9000F9FF01211F2020F0FDFE4FF400410020FE
:105AA00020F050FF40F2E111042020F04BFF4FF4B2
:105AB0008051002020F046FF00211F2020F0EAFE48
:105AC000BDE8104020F022BF2DE9FC41012108462D
:105AD00007F020F901215D2007F010F9012188036A
