:020000040800F2
:1000000010430224AD020008F50310083D940008D7
:10001000F10310088D011008F140010800000000F4
:1000200000000000000000000000000019FC0008B3
:10003000A73A000800000000FD031008F10B0108BA
:10004000C7020008C7020008C7020008C70200086C
:10005000C7020008C7020008C7020008C70200085C
:10006000C7020008C7020008C7020008C70200084C
:10007000C7020008C7020008C7020008C70200083C
:10008000C7020008C7020008C7020008C70200082C
:10009000C7020008C7020008C7020008C70200081C
:1000A000C7020008C7020008C7020008C70200080C
:1000B000C7020008C70200089D221208C7020008F4
:1000C000C7020008C7020008C7020008C7020008EC
:1000D000C7020008A1400108C7020008C7020008C3
:1000E000B5011008C702000800000000C7020008A0
:1000F000C7020008C7020008C7020008C7020008BC
:10010000C7020008C7020008910D0108C7020008D5
:10011000C7020008C7020008C7020008C70200089B
:10012000C7020008C7020008C7020008C70200088B
:10013000C702000839560008C7020008C7020008B5
:1001400000000000000000000000000000000000AF
:10015000C7020008C7020008C7020008C70200085B
:10016000C7020008C7020008C7020008C70200084B
:10017000C7020008C7020008C7020008000000000C
:10018000C7020008C7020008C7020008C70200082B
:10019000C7020008C7020008C7020008C70200081B
:1001A000C7020008C7020008C7020008C70200080B
:1001B000C7020008C7020008C7020008C7020008FB
:1001C000C7020008C7020008C7020008C7020008EB
:1001D000C7020008C7020008C7020008C7020008DB
:1001E000C7020008C7020008C7020008C7020008CB
:1001F000C7020008C7020008C7020008C7020008BB
:10020000C7020008C7020008C7020008C7020008AA
:10021000810D0108C7020008C7020008C7020008D4
:10022000C7020008C7020008C7020008000000005B
:10023000C7020008C702000800000000C70200084B
:10024000C7020008C7020008C7020008C70200086A
:10025000C7020008C7020008C7020008C70200085A
:10026000C7020008C7020008C7020008C70200084A
:10027000C7020008C7020008C7020008000000000B
:10028000C702000800000000C702000800000000CC
:1002900000000000C7020008DFF80CD000F05AFB95
:1002A00000480047F90D0208104302240648804721
:1002B00006480047FEE7FEE7FEE7FEE7FEE7FEE74B
:1002C000FEE7FEE7FEE7FEE7ED0C010899020008F5
:1002D0002DE9F05F0546002092469B46884606467B
:1002E000814640241BE0284641464746224600F00E
:1002F000D6F853465A46C01A914110D311461846B3
:10030000224600F0BDF82D1A67EB01084F46224641
:100310000120002100F0B4F817EB00094E41201E27
:10032000A4F10104DFDC484631462A464346BDE8D5
:10033000F09F2DE9F0410024061B254671F10006CF
:1003400005DA01240027D0EB070067EB0101161E38
:1003500073F1000605DA0027D2EB0702012567EBEF
:100360000303FFF7B5FF86460E4617469C46AC4290
:1003700004D00025D0EB050E65EB010624B100206A
:10038000D2EB000760EB030C704631463A466346F9
:10039000BDE8F08140EA01039B0703D009E008C9EA
:1003A000121F08C0042AFAD203E011F8013B00F83A
:1003B000013B521EF9D2704730B505462A460B461E
:1003C00012F8010B13F8014B08B1A042F8D01CB190
:1003D000002802D06D1CF1E7284630BD10B5044658
:1003E00004E00B7800F8013B03B1491C521EF8D21F
:1003F000204610BD10B5002200E0521C835C8C5CCE
:10040000A34201D1002BF8D1D8B2E1B2401A10BDFD
:100410002DE9F04791460F4680460446002614F821
:10042000015B2DB1FFF040FE0068405DC007F6D1D2
:100430002B2D02D02D2D18D0641E4A463946204659
:1004400000F03DF827B13968A14201D1C7F800801A
:1004500071054FF002040BD54042002803DD14F073
:100460003FF80460A007BDE8F08746F48066E4E743
:100470000028F8DA14F034F804606FF00040F2E776
:10048000202A04DB203A00FA02F100207047914054
:10049000C2F1200320FA03F3194390407047202A49
:1004A00004DB203A21FA02F00021704721FA02F31E
:1004B000D040C2F1200291400843194670472DE90F
:1004C000F05F82460078002715468B460AF101044A
:1004D000B946302801D09DB113E014F8010B012773
:1004E000782803D0582801D045B10AE00DB1102D6D
:1004F00007D10027102514F8010B02E0082500E0C1
:100500000A250026B0460EE005FB080005FB06F1B3
:10051000012701EB10461FFA80F8B6F5803F00D3A3
:10052000B94614F8010B294600F038FA0028EBDA36
:10053000BBF1000F05D00FB1641E00E05446CBF8AC
:100540000040B9F1000F06D013F0CAFF022101608C
:10055000C81EBDE8F09F48EA0640FAE72DE9FE4FC5
:10056000804681EA0300C00F0C46009021F0004154
:1005700023F00045B8EB0200A94105D240462146D0
:1005800090461C460B46024623F00040104347D0DD
:10059000270DC7F30A00C3F30A510290401A0190D5
:1005A00040286BDAC3F3130040F4801B0098924696
:1005B00020B10023D2EB030A63EB0B0B01985946E1
:1005C000C0F140025046FFF75BFF06460D4650461D
:1005D0005946019A00F0D0F910EB0800614100245F
:1005E00087EA115284EAE7731A4340D0009A62B353
:1005F000019A012A4FEA075215DC001B61EB020148
:100600004FF0004202EA0752CDE90042001C41F5DA
:10061000801132462B4600F0DEF903B0BDE8F08FC2
:1006200040462146F9E7001B61EB0201001C41F541
:10063000801300185B412018A2F5001747EB030157
:1006400040EAD570B6196D4111E06D084FEA3606E3
:1006500045EAC0754FEA0752001B61EB0201001C1E
:1006600041F5801149084FEA3000001951413246E6
:100670002B4603B0BDE8F04F00F09EB90098012270
:1006800040000023D0EB020263EBE07300982146A8
:100690004FEAE074B8EB000061EB0401E9E783F096
:1006A00000435BE781F0004158E72DE9FE4F81EA06
:1006B000030404F0004421F0004100944FF0000BCB
:1006C00023F0004350EA01045ED052EA03045BD0F9
:1006D000C3F30A54C1F30A552C44A4F2F334019431
:1006E000A0FB0254C1F3130141F48011C3F31303BF
:1006F00043F4801301FB024400FB034E840A970A73
:1007000044EA815447EA8357A4FB076802958D0A9F
:1007100005FB07854FEA932C04FB0C542705029D2B
:100720004FEA065847EA1637B5EB08056EEB070C9B
:10073000870E920E47EA811742EA8312A7FB020155
:10074000B6EB0B0164EB00042B0D43EA0C335E188F
:1007500044EB1C50DA465146E7FB0201C5F3130493
:100760004FEA0B3343EA14534FEA0432019C43EA45
:100770000603A4F10C040294009CCDE900B400F03F
:100780002AF903B0BDE8F08F00200146F9E72DE912
:10079000F04D81EA030404F0004B21F000451446BB
:1007A0004FF0000A23F0004150EA050220D054EA3D
:1007B00001021DD0C5F30A570246C5F31303C1F366
:1007C0001300C1F30A5640F4801543F48013A7EBDD
:1007D0000608101BD64608F2FD3873EB050002D35D
:1007E00008F1010801E092185B41B8F1000F03DA4B
:1007F00000200146BDE8F08D00204FF48011064630
:1008000084460EE0171B73EB050705D3121B63EB41
:10081000050306434CEA010C49084FEA30009218E0
:100820005B4150EA0107EDD152EA030012D082EA9F
:10083000040083EA0501084305D0101BAB4106D232
:100840000122002306E000224FF0004302E06FF097
:10085000010253101AEB06004CEB085110EB0A0092
:1008600041EB0B01BDE8F04D00F0A6B870B521F0EA
:10087000004303430CD0C1F30A550024D5EB040513
:1008800064EB0403D617AD1AB34102DB0020014626
:1008900070BD201841EB025170BD00002DE9F04100
:1008A000054621F000400C46284309D0C4F30A5005
:1008B00040F23341884205DD28462146BDE8F081FB
:1008C0002846FBE740F2FE31884210DC0CDB4FEAA1
:1008D000043040EA155050EA053105D0104804F0C4
:1008E000004101430020E9E700200146E6E7A0F2CD
:1008F00033404642C6F1400228462146FFF7C0FD7C
:1009000007468846284621463246FFF7C8FD43463B
:100910003A4600F051F83246BDE8F041FFF7B0BD6D
:100920000000F03F30B5041E71F1000404DB4FF00D
:100930000044404264EB0101141E73F1000405DB26
:100940001C464FF00043524263EB0403994208BF38
:10095000904230BD064C074D06E0E06840F00103D0
:1009600094E8070098471034AC42F6D3FFF798FCA0
:100970006C2802088C280208202A06DBCB17203AB4
:1009800041FA02F043EAE07306E041FA02F3D04094
:10099000C2F1200291400843194670473A2800D21C
:1009A000303820F02002412A01D3A2F137008842DA
:1009B00001D34FF0FF30704710B5141E73F10004DF
:1009C00008DA401C41F1000192185B411A4301D141
:1009D00020F0010010BD2DE9F04D92469B4611B16B
:1009E000B1FA81F202E0B0FA80F220329046FFF7CD
:1009F00047FD04460F4640EA0A0041EA0B01534610
:100A00005A46084313D0114653EA010019D0C8F1E1
:100A100040025046FFF743FD05460E4650465946F4
:100A20004246FFF72DFD084305D0012004E0204693
:100A30003946BDE8F08D0020054346EAE0762C43B8
:100A400037430A986305E40AA0EB08000022FD0A78
:100A500044EA47540A3002D500200146E9E701057F
:100A600010196941DDE9084500196941BDE8F04DFB
:100A7000A2E7000070B52DED048B05460C46164626
:100A800094ED060B9FED601B20EE010B9FED601BAC
:100A900080EE012BB0EE428BB0EE480B14F010F854
:100AA00095ED001B20EE019B94ED060B9FED561B70
:100AB00020EE010B9FED561B80EE012BB0EE428B1A
:100AC000B0EE480B14F054FE95ED021B01EE009BB6
:100AD00094ED060B9FED4C1B20EE010B9FED4C1B84
:100AE00080EE012BB0EE428BB0EE480B13F0E8FF26
:100AF00094ED001B01EE409B94ED060B9FED421B15
:100B000020EE010B9FED421B80EE012BB0EE428BDD
:100B1000B0EE480B14F02CFE94ED021B01EE409B4E
:100B200086ED009B94ED060B9FED371B20EE010B2D
:100B30009FED371B80EE012BB0EE428BB0EE480BE1
:100B400014F016FE95ED001BB1EE411B20EE019B4B
:100B500094ED060B9FED2C1B20EE010B9FED2C1B43
:100B600080EE012BB0EE428BB0EE480B13F0A8FFE5
:100B700095ED021B01EE009B94ED060B9FED221BF1
:100B800020EE010B9FED221B80EE012BB0EE428B7D
:100B9000B0EE480B14F0ECFD94ED001B01EE009B51
:100BA00094ED060B9FED181B20EE010B9FED181B1B
:100BB00080EE012BB0EE428BB0EE480B13F080FFBD
:100BC00094ED021B01EE409B86ED029B95ED040B1C
:100BD00094ED041B30EE410B86ED040B95ED060BF6
:100BE00094ED061B30EE410B86ED060B96ED061BD1
:100BF000B0EE410B9FED081B0AF076FF86ED060B69
:100C00000020BDEC048B70BD112D4454FB21094024
:100C100000000000008066400000000000000000AE
:100C200070B52DED088BBCB004460D46B0EE409B70
:100C3000B0EE41ABB0EE42BB164695ED0A3BB0EECE
:100C4000432B95ED083BB0EE431B95ED063BB0EE14
:100C5000430B2AA802F040FA94ED0A3BB0EE432B76
:100C600094ED083BB0EE431B94ED063BB0EE430B16
:100C700018A802F031FA9DED2C0BB0EE408B9DEDE3
:100C8000300B8DED2C0B8DED308B9DED2E0BB0EEE2
:100C9000408B9DED360B8DED2E0B8DED368B9DED46
:100CA000340BB0EE408B9DED380B8DED340B8DED9C
:100CB000388B9DED2A0B94ED001B20EE010B9DED72
:100CC0002C1B94ED022B01EE020B9DED2E2B94EDCF
:100CD000043BB0EE401B02EE031B9DED2A0B95ED8D
:100CE000002B20EE020B9DED2C2B95ED023B02EE2E
:100CF000030B9DED2E2B95ED043B02EE030B31EE25
:100D0000400B86ED000B9DED300B94ED001B20EEAB
:100D1000010B9DED321B94ED022B01EE020B9DEDBC
:100D2000342B94ED043BB0EE401B02EE031B9DED13
:100D3000300B95ED002B20EE020B9DED322B95ED47
:100D4000023B02EE030B9DED342B95ED043B02EECE
:100D5000030B31EE400B86ED020B9DED360B94ED4F
:100D6000001B20EE010B9DED381B94ED022B01EED4
:100D7000020B9DED3A2B94ED043BB0EE401B02EECE
:100D8000031B9DED360B95ED002B20EE020B9DED28
:100D9000382B95ED023B02EE030B9DED3A2B95EDC2
:100DA000043B02EE030B31EE400B86ED040B06AA6A
:100DB00018A92AA809F028FE6B4602AA04A9B0EED9
:100DC0004B2BB0EE4A1BB0EE490B06A802F06CFEAE
:100DD0009FED0E1B9DED040B0AF086FE86ED060BC3
:100DE0009FED0A1B9DED020B0AF07EFE86ED080BBF
:100DF0009FED061B9DED000B0AF076FE86ED0A0BBB
:100E000000203CB0BDEC088B70BD0000000000006D
:100E10000000000031B52DED080B2DED0A8B0446C6
:100E20009DED0A1B21EE011B9DED0C2B9DED0C3B56
:100E300002EE031B9DED0E2B9DED0E3B02EE031B00
:100E40009DED102B9DED103B02EE031BB0EE410B10
:100E500014F0E6FCB0EE409B94ED001B21EE011B6C
:100E600094ED022B94ED023B02EE031B94ED042B58
:100E700094ED043B02EE031B94ED062B94ED063B30
:100E800002EE031BB0EE410B14F0CAFCB0EE40AB17
:100E90009DED0A0B94ED001B20EE010B9DED0C1B4C
:100EA00094ED022B01EE020B9DED0E1B94ED042B35
:100EB00001EE020B9DED101B94ED062B01EE020BD3
:100EC000B0EE40BB29EE0A0B8BEE001BB0EE418B5F
:100ED000B7EE000BB4EEC08BF1EE10FA04DDB7EE06
:100EE000000BB0EE408B0AE0BFEE000BB4EEC08BFF
:100EF000F1EE10FA03D2BFEE000BB0EE408BB5EE70
:100F0000C08BF1EE10FA17D294ED000BB1EE400B4E
:100F100084ED000B94ED020BB1EE400B84ED020B5F
:100F200094ED040BB1EE400B84ED040B94ED060B35
:100F3000B1EE400B84ED060BB0EEC80BB0EE40CB2B
:100F400013F0D2FABDEC0A8B09B030BD70B52DEDAF
:100F5000088B04460D4694ED001B21EE011B94ED19
:100F6000022B94ED023B02EE031B94ED042B94ED57
:100F7000043B02EE031B94ED062B94ED063B02EEC0
:100F8000031B94ED082B94ED083B02EE031B94ED3C
:100F90000A2B94ED0A3B02EE031BB0EE410B14F05A
:100FA0003FFCB0EE409B95ED001B21EE011B95ED43
:100FB000022B95ED023B02EE031B95ED042B95ED04
:100FC000043B02EE031B95ED062B95ED063B02EE6E
:100FD000031B95ED082B95ED083B02EE031B95EDE9
:100FE0000A2B95ED0A3B02EE031BB0EE410B14F009
:100FF00017FCB0EE40AB9FED300BB4EEC09BF1EEB2
:1010000010FA06D39FED2C0BB4EEC0ABF1EE10FA44
:1010100004D2BFEE000BBDEC088B70BD94ED000B4D
:1010200095ED001B20EE010B94ED021B95ED022BBC
:1010300001EE020B94ED041B95ED042B01EE020B67
:1010400094ED061B95ED062B01EE020B94ED081BAB
:1010500095ED082B01EE020B94ED0A1B95ED0A2B82
:10106000B0EE40BB01EE02BB29EE0A0B8BEE008B0B
:10107000B7EE000BB4EEC08BF1EE10FA04DDB7EE64
:10108000000BB0EE408B0AE0BFEE000BB4EEC08B5D
:10109000F1EE10FA03D2BFEE000BB0EE408BB0EED3
:1010A000480B13F021FA9FED061B20EE011B9FED6C
:1010B000062B81EE020BAEE7F168E388B5F8E43E5B
:1010C0000000000000806640112D4454FB210940BF
:1010D0002DE9F0412DED108BECB004460D4616467F
:1010E0001F4695ED000B8DED6A0B95ED020B8DED16
:1010F000680B95ED040B8DED660B95ED060B8DEDF4
:10110000640B95ED080B8DED620B95ED0A0B8DEDE3
:10111000600B9DED6A0B9FEDFE1B20EE010B9FED1A
:10112000FE1B80EE012B8DED002B9DED000B13F0CF
:10113000C7FCB0EE409B9DED6A0B9FEDF51B20EECA
:10114000010B9FEDF51B80EE012B8DED002B9DED2E
:10115000000B14F00DFBB0EE40AB9DED680B9FED66
:10116000EC1B20EE010B9FEDEC1B80EE012B8DEDB7
:10117000002B9DED000B13F0A3FC8DED5E0B9DEDA0
:10118000680B9FEDE31B20EE010B9FEDE31B80EE50
:10119000012B8DED002B9DED000B14F0E9FA8DED88
:1011A0005C0B9DED660B9FEDDA1B20EE010B9FEDB6
:1011B000DA1B80EE012B8DED002B9DED000B13F063
:1011C0007FFC8DED5A0B9DED660B9FEDD11B20EE44
:1011D000010B9FEDD11B80EE012B8DED002B9DEDC2
:1011E000000B14F0C5FA8DED580B9DED640B9FEDCF
:1011F000C81B20EE010B9FEDC81B80EE012B8DED6F
:10120000002B9DED000B13F05BFCB0EE40BB9DEDA1
:10121000640B9FEDBF1B20EE010B9FEDBF1B80EE0B
:10122000012B8DED002B9DED000B14F0A1FAB0EE1B
:1012300040DB9DED620B9FEDB61B20EE010B9FED99
:10124000B61B80EE012B8DED002B9DED000B13F0F6
:1012500037FCB0EE40CB9DED620B9FEDAD1B20EE59
:10126000010B9FEDAD1B80EE012B8DED002B9DED55
:10127000000B14F07DFAB0EE408B9DED600B9FEDFE
:10128000A41B20EE010B9FEDA41B80EE012B8DED26
:10129000002B9DED000B13F013FC8DED560B9DED17
:1012A000600B9FED9B1B20EE010B9FED9B1B80EEC7
:1012B000012B8DED002B9DED000B14F059FA8DEDF7
:1012C000540B9DED680B9DED661B30EE010B9FED01
:1012D000901B20EE010B9FED901B80EE012B8DEDFE
:1012E000002B9DED000B13F0EBFBB0EE40FB9DEDF2
:1012F000680B9DED661B30EE010B9FED851B20EE0C
:10130000010B9FED851B80EE012B8DED002B9DEDDC
:10131000000B14F02DFAB0EE40EB94ED0C0B8DEDBC
:10132000520B94ED100B8DED500B94ED1C0B8DEDCD
:101330004E0B94ED240B8DED4C0B94ED280B8DEDA5
:101340004A0B94ED300B8DED480B94ED3C0B8DED7D
:10135000460B94ED000B8DED3A0B94ED020B8DEDE9
:101360003C0B94ED040B8DED3E0B94ED060B8DEDD7
:10137000400B94ED080B8DED420B94ED0A0B8DEDB7
:10138000440B9DED500BB5EEC00BF1EE10FA1FD3E0
:101390009DED4E0BB5EEC00BF1EE10FA18D99DED98
:1013A0004A0BB5EEC00BF1EE10FA11D39DED4C0BCC
:1013B0009DED481B30EE010BB5EEC00BF1EE10FABF
:1013C00006D99DED460BB5EEC00BF1EE10FA06D82E
:1013D00040F2FD306CB0BDEC108BBDE8F0819DEDAE
:1013E0004C0B9DED481B30EE011B9DED460B0CEEAA
:1013F000001B9DED5A0B21EE001B2BEE084B9DEDC3
:10140000463B9DED4A0BB0EE402B04EE432B9DED89
:10141000583BB0EE410B03EE020B8DED2C0B9DED16
:101420004C0B9DED481B30EE011B9DED460B0CEE69
:10143000001B9DED580BB1EE400B21EE002B2BEE67
:10144000084B9DED463B9DED4A0BB0EE401B04EE74
:10145000431B9DED5A3BB0EE420B03EE010B8DEDAD
:101460002A0B9DED521B9DED5E2B9DED2C0B02EE8C
:10147000001B9DED2A0B9DED4E2B30EE023B9DEDAA
:101480005C2BB0EE410B02EE030B8DED280B9DEDB6
:10149000501B9DED5C2B9DED2C0B02EE401B9DED3A
:1014A0002A0B9DED4E2B30EE023B9DED5E2BB0EEF8
:1014B000410B02EE030B8DED260B9DED280B29EE63
:1014C000001B2AEE0D0B20EE082B9DED460B02EEC5
:1014D000401B8DED2E1B9DED280B2AEE001B29EEE7
:1014E0000D0B20EE082B9DED460B02EE001B8DED43
:1014F000301B9DED260B8DED320BB1EE4A0B20EE2D
:101500000B0B29EE0E1B01EE0D0B8DED120B07E000
:10151000112D4454FB21094000000000008066406A
:1015200029EE0F0B20EE080B2CEE0A1B01EE0D0B23
:101530002CEE091B21EE0E1B01EE0B0B8DED100B9B
:1015400029EE0B0B2AEE0E1B01EE0D0B8DED0E0B93
:101550002AEE0F0B20EE080B29EE0D1B01EE4C0BB3
:101560002CEE0A1B21EE0E1B01EE0B0B8DED0C0B6E
:101570002FEE0D0B8DED0A0BB1EE4E0B20EE080B8E
:101580002FEE0B1B01EE0C0B8DED080B29EE0F0B54
:1015900020EE0C0B2AEE0D1B01EE480B29EE0E1B64
:1015A00021EE0B1B01EE480B8DED140B9DED561B30
:1015B0009DED120B21EE002B9DED541B9DED100BAC
:1015C00001EE002B8DED162B9DED540BB1EE401B63
:1015D0009DED120B21EE002B9DED561B9DED100B8A
:1015E00001EE002B8DED182B2AEE0F0B20EE0C0BCD
:1015F00029EE0D1B01EE080B2AEE0E1B21EE0B1B34
:1016000001EE480B8DED1A0B9DED561B9DED0E0B5B
:1016100021EE002B9DED541B9DED0C0B01EE002BDC
:101620008DED1C2B9DED540BB1EE401B9DED0E0B73
:1016300021EE002B9DED561B9DED0C0B01EE002BBA
:101640008DED1E2BB1EE4E0B20EE0C0B2FEE0B1B77
:1016500001EE480B8DED200B9DED561B9DED0A0B09
:1016600021EE002B9DED541B9DED080B01EE002B90
:101670008DED222B9DED540BB1EE401B9DED0A0B21
:1016800021EE002B9DED561B9DED080B01EE002B6E
:101690008DED242B96ED0A3BB0EE432B96ED083BE7
:1016A000B0EE431B96ED063BB0EE430B02AB04AA33
:1016B00006A914A802F0F8F99DED060B8DED340B88
:1016C0009DED040B8DED360B9DED020B8DED380B72
:1016D00096ED0A3BB0EE432B96ED083BB0EE431B74
:1016E00096ED063BB0EE430B3A463AA92EA80FF012
:1016F00069F94FF0000800BF0DE007EBC80090ED5E
:10170000001BB0EE410B0EF071F907EBC80080ED45
:10171000000B08F10108B8F1060FEEDB002059E6D6
:101720000FB52DED028BADF52D7DAF9890ED000B33
:101730008DEDA00BAF9890ED020B8DEDA20BAF9845
:1017400090ED040B8DEDA40BAF9890ED060B8DED95
:10175000A60BAF9890ED080B8DEDA80BAF9890ED10
:101760000A0B8DEDAA0BB09890ED0A0B8DED040BD2
:1017700090ED080B8DED020B90ED060B8DED000B3F
:1017800094AA9DED042B9DED021B9DED000BA0A9DD
:10179000FFF746FA9DED940B8DED860B9DED960BB4
:1017A0008DED840B9DED980B8DED820B9DED9A0BCD
:1017B0008DED800B9DED9C0B8DED7E0B9DED9E0BBD
:1017C0008DED7C0BAF9890ED0C0B8DED7A0BAF98F7
:1017D00090ED100B8DED780BAF9890ED1C0B8DED0F
:1017E000760BAF9890ED240B8DED740BAF9890EDC8
:1017F000280B8DED720BAF9890ED300B8DED700BCB
:10180000AF9890ED3C0B8DED6E0B00206D90B19874
:1018100090ED040B9FEDFE1BB4EEC10BF1EE10FA40
:1018200004D26D9840F002006D9001E06D986D90CB
:10183000B19890ED080BB5EEC00BF1EE10FA04D2A2
:101840006D9840F008006D9001E06D986D909DEDF1
:10185000780BB5EEC00BF1EE10FA1FD39DED760BB1
:10186000B5EEC00BF1EE10FA18D99DED720BB5EE86
:10187000C00BF1EE10FA11D39DED740B9DED701BB2
:1018800030EE010BB5EEC00BF1EE10FA06D99DED6E
:101890006E0BB5EEC00BF1EE10FA07D840F2FD303A
:1018A0000DF52D7DBDEC028B04B000BD9DED7C2BB4
:1018B0009DED7E1B9DED800B5AA801F00DFC9DED6A
:1018C0005A2B9DED860B9DED6E1B01EE420B8DEDAF
:1018D000880B9DED602B9DED840B9DED6E1B01EE45
:1018E000420B8DED8A0B9DED662B9DED820B9DEDE0
:1018F0006E1B01EE420B8DED8C0B9DED880BB0EE57
:10190000C00B9FEDC51BB4EEC10BF1EE10FA11D266
:101910009DED8A0BB0EEC00B9FEDBF1BB4EEC10B6B
:10192000F1EE10FA06D2B19890ED000BB29880ED6E
:10193000000B18E09DED880B8DED040B9DED8A0BDF
:101940008DED020B9DED041B9DED020B12F0D8FFF7
:101950009FEDB31B20EE010B9FEDB31B80EE012B1F
:10196000B29880ED002BB19890ED000B8DED040B3B
:10197000B29890ED000B8DED020B9DED041B9DEDDB
:10198000020B0AF0D9F8B29880ED000B9DED740BB4
:101990009DED701B30EE010B20EE000B9DED721BD8
:1019A00001EE010B8DED040B9DED040B13F038FFE0
:1019B0008DED580B9DED8C1B9DED780B31EE400BA2
:1019C0008DED560B9DED880B20EE000B9DED8A1BD7
:1019D0009DED8A2B01EE020B8DED040B9DED040BAA
:1019E00013F01EFF8DED540B9DED880B8DED020B5A
:1019F0009DED8A0B8DED000B9DED021B9DED000B07
:101A000012F07EFF9FED861B20EE010B9FED861BE3
:101A100080EE012BB29890ED000B30EE420B8DED75
:101A2000040B9FED831B9DED040B0AF05DF8B0EEF7
:101A3000C00B9FED811BB4EEC10BF1EE10FA05DD7A
:101A40009DED540BB1EE400B8DED540B9DED540B01
:101A50009DED7A1B30EE410B8DED540B9DED540B3B
:101A600020EE000B9DED561B01EE010B8DED040BDE
:101A70009DED040B13F0D4FE8DED520B9DED760B16
:101A80009DED581B30EE010B9FED631B30EE011BEB
:101A90009DED520BB4EEC01BF1EE10FA12D39DED8A
:101AA000760B9DED581B30EE410BB0EEC00B9FED59
:101AB0005A1B30EE411B9DED520BB4EEC01BF1EEF4
:101AC00010FA02DD40F2FE30EAE69DED760B9DED68
:101AD000581B30EE011B9DED520BB4EEC01BF1EE16
:101AE00010FA08D29DED760B9DED581B30EE010BE0
:101AF0008DED520B18E09DED760B9DED581B30EEF1
:101B0000410BB0EEC01B9DED520BB4EEC01BF1EECD
:101B100010FA09DD9DED760B9DED581B30EE410B63
:101B2000B0EEC00B8DED520B9DED541B9DED560B91
:101B300012F0E6FE9FED3A1B20EE011B9FED3A2BC3
:101B400081EE020B8DED500B9DED520B20EE000B44
:101B50009DED761B01EE010B9DED581BB0EE402B69
:101B600001EE412B9DED760BB0EE001B20EE011B2C
:101B70009DED520B21EE001B82EE010B8DED4E0B05
:101B80009DED4E0BB7EE001B00EE401B8DED021BD2
:101B90009DED020B13F044FE8DED040B9DED4E1BED
:101BA0009DED040B12F0ACFE9FED1D1B20EE011B02
:101BB0009FED1D2B81EE020B8DED4C0B9DED760BF9
:101BC00020EE000B9DED581B01EE010B9DED521B0D
:101BD000B0EE402B01EE412B9DED760BB0EE001BDD
:101BE00020EE011B9DED580B21EE001B82EE010B38
:101BF0008DED4A0B9DED4A0BB7EE001B00EE401B2E
:101C00008DED021B9DED020B13F00AFE18E00000A3
:101C100000000000008056C0F168E388B5F8E43E9B
:101C20000000000000806640112D4454FB21094053
:101C3000000000000000000000000000008056408E
:101C40008DED040B9DED4A1B9DED040B12F058FE2B
:101C50001FED0D1B20EE010B1FED0D1B80EE012B68
:101C60001FED110B30EE420B8DED480B6D9800F01F
:101C7000020060B39DED500B1FED111B31EE401BB8
:101C80009DED4C0B31EE000BB29880ED020B9DEDFB
:101C9000740B9DED701B30EE010B8DED040B9DED73
:101CA000721B9DED040B12F02BFE1FED231B20EE8B
:101CB000010B1FED232B80EE021B9DED480BB1EEB7
:101CC000400B30EE410BB29880ED040B29E09DED06
:101CD000500B1FED271B31EE401B9DED4C0B31EEE1
:101CE000400BB29880ED020B9DED740B9DED701BC7
:101CF00030EE010B8DED040B9DED721B9DED040B81
:101D000012F0FEFD1FED3A1B20EE010B1FED3A2BEA
:101D100080EE021B9DED480B30EE410BB29880ED3A
:101D2000040B00204790479014E04799B29800EBCD
:101D3000C10090ED000B8DED040B9DED040B0DF03B
:101D400055FE4799B29800EBC10080ED000B479813
:101D5000401C479047980328E7DBB29890ED020BB0
:101D600090ED041B30EE010B8DED200BB29890ED41
:101D7000000B8DED1E0B9DED1E0B1FED551B20EE78
:101D8000011B1FED592B81EE020B8DED040B9DED18
:101D9000040B12F095FEB0EE408B9DED200B1FED75
:101DA0005E1B20EE011B1FED622B81EE020B8DED01
:101DB000040B9DED040B12F083FE28EE000B8DED5D
:101DC000340B9DED1E0B1FED681B20EE011B1FED5C
:101DD0006C2B81EE020B8DED040B9DED040B13F0CB
:101DE000C7FCB1EE400B8DED360B9DED200B1FEDCA
:101DF000721B20EE011B1FED762B81EE020B8DED89
:101E0000040B9DED040B13F0B3FCB0EE408B9DED85
:101E10001E0B1FED7B1B20EE011B1FED7F2B81EEA8
:101E2000020B8DED040B9DED040B12F049FE28EE24
:101E3000000B8DED380B9DED200B1FED851B20EE6B
:101E4000011B1FED892B81EE020B8DED040B9DED27
:101E5000040B12F035FEB0EE408B9DED1E0B1FED16
:101E60008E1B20EE011B1FED922B81EE020B8DEDE0
:101E7000040B9DED040B13F07BFC28EE000B8DEDA5
:101E80003A0B9DED1E0B1FED981B20EE011B1FED65
:101E90009C2B81EE020B8DED040B9DED040B12F0DB
:101EA0000FFE8DED3C0B9DED200B1FEDA11B20EED9
:101EB000011B1FEDA52B81EE020B8DED040B9DED9B
:101EC000040B13F055FCB0EE408B9DED1E0B1FED87
:101ED000AA1B20EE011B1FEDAE2B81EE020B8DED38
:101EE000040B9DED040B13F043FC28EE000B8DED6D
:101EF0003E0B9DED200B1FEDB41B20EE011B1FEDD3
:101F0000B82B81EE020B8DED040B9DED040B13F04D
:101F10002FFCB1EE400B8DED400B1FEDBB0B8DED9B
:101F2000420B9DED200B1FEDC01B20EE011B1FED92
:101F3000C42B81EE020B8DED040B9DED040B12F012
:101F4000BFFD8DED440B9DED360B8DED1C0B9DED16
:101F50003A0B8DED360B9DED1C0B8DED3A0B9DED87
:101F6000380B8DED1C0B9DED400B8DED380B9DED71
:101F70001C0B8DED400B9DED3E0B8DED1C0B9DED77
:101F8000420B8DED3E0B9DED1C0B8DED420B22AAFD
:101F90005AA934A808F038FDB19890ED060B8DEDE4
:101FA0000A0BB19890ED080B8DED080BB19890EDF0
:101FB0000A0B8DED060B9DED221B9DED222BB7EE3E
:101FC000000B01EE420B8DED020B9DED020B13F0A9
:101FD00027FC8DED040B9DED220B8DED020B9DED8D
:101FE000021B9DED040B12F08BFC1FEDF31B20EE8A
:101FF000010B1FEDF31B80EE012B8DED142B9DEDDE
:10200000221B9DED222BB7EE000B01EE420B8DED56
:10201000020B9DED020B13F003FCB1EE400B8DEDB6
:10202000040B9DED220B8DED020B9DED021B9DED32
:10203000040B12F065FC9FEDFE1B20EE010B9FEDE3
:10204000FE1B80EE012B8DED162B9DED140BB0EEDB
:10205000C00B9FEDFB1BB4EEC10BF1EE10FA68DD77
:102060009DED260B8DED040B9DED240B8DED020BEC
:102070009DED041B9DED020B12F042FC9FEDEC1B4D
:1020800020EE010B9FEDEC1B80EE012B8DED102B54
:102090009DED260BB1EE400B8DED040B9DED240B59
:1020A000B1EE400B8DED020B9DED041B9DED020B7F
:1020B00012F026FC9FEDDE1B20EE010B9FEDDE1BD8
:1020C00080EE012B8DED122B9DED2E0BB1EE400B12
:1020D0008DED040B9DED280B8DED020B9DED041B8A
:1020E0009DED020B12F00CFC9FEDD11B20EE010BBD
:1020F0009FEDD11B80EE012B8DED182B9DED2E0B4E
:102100008DED040B9DED280BB1EE400B8DED020B18
:102110009DED041B9DED020B12F0F2FB9FEDC41B25
:1021200020EE010B9FEDC41B80EE012B8DED1A2BD1
:1021300025E09DED0A0B8DED1A0B8DED180B9DED35
:10214000320B8DED040B9DED2C0BB1EE400B8DEDA4
:10215000020B9DED041B9DED020B12F0D1FB9FEDD8
:10216000B41B20EE010B9FEDB42B80EE021B9DED06
:102170000A0B31EE400B8DED120B8DED100BB1986B
:1021800090ED060B8DED040B9DED180B8DED020B04
:102190009DED041B9DED020B09F0A6FC8DED180BC7
:1021A000B19890ED060B8DED040B9DED1A0B8DEDA6
:1021B000020B9DED041B9DED020B09F095FC8DEDCE
:1021C0001A0BB19890ED0A0B8DED040B9DED100BE1
:1021D0008DED020B9DED041B9DED020B09F084FCBF
:1021E0008DED100BB19890ED0A0B8DED040B9DED6C
:1021F000120B8DED020B9DED041B9DED020B09F002
:1022000073FC8DED120B9DED181B9DED0A0B31EE4D
:10221000400BB0EEC01B9DED142B9DED080B32EE74
:10222000400BB0EEC00B31EE001B9DED102B9DED71
:10223000060B32EE400BB0EEC00B31EE000B8DED15
:102240000C0B9DED1A1B9DED0A0B31EE400BB0EE11
:10225000C01B9DED162B9DED080B32EE400BB0EE32
:10226000C00B31EE001B9DED122B9DED060B32EEE7
:10227000400BB0EEC00B31EE000B8DED0E0B6D98E8
:1022800000F00800D8B39DED140BB5EEC00BF1EED5
:1022900010FA16D29DED160BB5EEC00BF1EE10FA4A
:1022A0000FDB9DED180BB29880ED060B9DED140B26
:1022B000B29880ED080B9DED100BB29880ED0A0BE3
:1022C000ABE09DED160BB5EEC00BF1EE10FA17D298
:1022D0009DED140BB5EEC00BF1EE10FA10DB9DED89
:1022E0001A0BB29880ED060B9DED160BB29880ED9F
:1022F000080B9DED120BB29880ED0A0B8DE028E0E3
:102300009DED0C0B9DED0E1BB4EEC10BF1EE10FA22
:102310000FD89DED180BB29880ED060B9DED140BB8
:10232000B29880ED080B9DED100BB29880ED0A0B72
:1023300073E09DED1A0BB29880ED060B9DED160B28
:10234000B29880ED080B9DED120BB29880ED0A0B50
:1023500063E09DED140BB5EEC00BF1EE10FA16DB49
:102360009DED160BB5EEC00BF1EE10FA0FD29DED00
:10237000180BB29880ED060B9DED140BB29880ED12
:10238000080B9DED100BB29880ED0A0B45E09DED1A
:10239000160BB5EEC00BF1EE10FA16DB9DED140B2B
:1023A000B5EEC00BF1EE10FA0FD29DED1A0BB298FC
:1023B00080ED060B9DED160BB29880ED080B9DEDA0
:1023C000120BB29880ED0A0B27E09DED0C0B9DEDF2
:1023D0000E1BB4EEC10BF1EE10FA0FD89DED180BE9
:1023E000B29880ED060B9DED140BB29880ED080BB2
:1023F0009DED100BB29880ED0A0B0EE09DED1A0BCF
:10240000B29880ED060B9DED160BB29880ED080B8F
:102410009DED120BB29880ED0A0BB19890ED060B72
:102420008DED040BB29890ED060B8DED020B0BE0D9
:102430000000000000806640112D4454FB2109403B
:10244000F168E388B5F8E43E9DED041B9DED020BB9
:1024500009F04AFBB29880ED060BB19890ED0A0B9B
:102460008DED040BB29890ED0A0B8DED020B9DEDF6
:10247000041B9DED020B09F037FBB29880ED0A0BAF
:102480000320479014E04799B29800EBC10090ED0B
:10249000000B8DED040B9DED040B0DF0A7FA479991
:1024A000B29800EBC10080ED000B4798401C4790AC
:1024B00047980628E7DB0020FFF7F2B92DE9F04145
:1024C0002DED108BBAB005460E46144696ED000B66
:1024D0008DED380B96ED020B8DED360B96ED040B62
:1024E0008DED340B96ED060B8DED320B96ED080B52
:1024F0008DED300B96ED0A0B8DED2E0B9DED380B0F
:102500009FEDFE1B20EE010B9FEDFE1B80EE012BCD
:102510008DED0A2B9DED0A0B12F0D2FA8DED2C0BEE
:102520009DED380B9FEDF51B20EE010B9FEDF51B8C
:1025300080EE012B8DED0A2B9DED0A0B13F018F99F
:102540008DED2A0B9DED360B9FEDEC1B20EE010B64
:102550009FEDEC1B80EE012B8DED0A2B9DED0A0B00
:1025600012F0AEFAB0EE409B9DED360B9FEDE31BF3
:1025700020EE010B9FEDE31B80EE012B8DED0A2B6E
:102580009DED0A0B13F0F4F8B0EE408B9DED340B8B
:102590009FEDDA1B20EE010B9FEDDA1B80EE012B85
:1025A0008DED0A2B9DED0A0B12F08AFA8DED280BAA
:1025B0009DED340B9FEDD11B20EE010B9FEDD11B48
:1025C00080EE012B8DED0A2B9DED0A0B13F0D0F858
:1025D0008DED260B9DED320B9FEDC81B20EE010B00
:1025E0009FEDC81B80EE012B8DED0A2B9DED0A0B94
:1025F00012F066FA8DED240B9DED320B9FEDBF1BA3
:1026000020EE010B9FEDBF1B80EE012B8DED0A2B01
:102610009DED0A0B13F0ACF88DED220B9DED300B08
:102620009FEDB61B20EE010B9FEDB61B80EE012B3C
:102630008DED0A2B9DED0A0B12F042FA8DED200B69
:102640009DED300B9FEDAD1B20EE010B9FEDAD1B03
:1026500080EE012B8DED0A2B9DED0A0B13F088F80F
:102660008DED1E0B95ED0C0BB0EE40AB95ED100B08
:102670008DED1C0B95ED1C0BB0EE40DB95ED240BA6
:10268000B0EE40EB95ED280BB0EE40FB95ED300B36
:102690008DED1A0B95ED3C0B8DED180B9DED1C0B84
:1026A000B5EEC00BF1EE10FA19D3B5EEC0DBF1EECA
:1026B00010FA14D9B5EEC0FBF1EE10FA0FD39DED70
:1026C0001A0B3EEE000BB5EEC00BF1EE10FA06D978
:1026D0009DED180BB5EEC00BF1EE10FA06D840F2E6
:1026E000FD303AB0BDEC108BBDE8F0819FED870B5B
:1026F00084ED000B9FED850B84ED020B9FED830BAA
:1027000084ED040B9DED2C0B20EE0A0B84ED0C0BDD
:102710009DED2A0B20EE0A0B84ED0E0B9DED1C0B9C
:1027200084ED100BB0EE4A0B08EE0D0B9DED2C1B4B
:1027300020EE010B84ED180BB0EE4A0B08EE0D0BEA
:102740009DED2A1B20EE010B84ED1A0B9DED1C0B59
:1027500009EE0D0B84ED1C0B9DED280B20EE0E1BDE
:102760009DED260B00EE0F1BB0EE41BB9DED260B41
:10277000B1EE400B20EE0E1B9DED280B00EE0F1B63
:1027800031EE0D0BB0EE40CB29EE0B0B08EE0C0B2F
:1027900030EE0A1B9DED2C0B21EE000B84ED240B7B
:1027A00029EE0B0B08EE0C0B30EE0A1B9DED2A0BED
:1027B00021EE000B84ED260B9DED1C0B08EE4B0B60
:1027C00009EE0C0B84ED280B9DED1A0B3EEE001B61
:1027D0009DED280B21EE001B9DED260B00EE0F1B3F
:1027E000B0EE41BB9DED1A0B3EEE001B9DED260B9E
:1027F000B1EE400B21EE001B9DED280B00EE0F1BF0
:1028000031EE0D0BB0EE40CB29EE0B0B08EE0C0BAE
:1028100030EE0A1B9DED2C0B21EE000B84ED300BEE
:1028200029EE0B0B08EE0C0B30EE0A1B9DED2A0B6C
:1028300021EE000B84ED320B9DED1C0B08EE4B0BD3
:1028400009EE0C0B84ED340B9DED1A0B3EEE000BE4
:102850009DED201B9DED182B01EE020B9DED281B1D
:1028600020EE010B9DED241B9DED1E2B21EE023B66
:102870009DED181BB0EE4F2B03EE412B9DED261B5B
:1028800001EE020BB0EE40BB9DED1A0B3EEE000BCD
:102890009DED202B9DED181B02EE010B9DED261BDF
:1028A000B1EE411B20EE011B9DED240B9DED1E2B77
:1028B00020EE023B9DED180BB0EE4F2B03EE402BAC
:1028C0009DED280B00EE021B31EE0D0BB0EE40CB60
:1028D00029EE0B0B08EE0C0B30EE0A1B9DED2C0BBA
:1028E00021EE000B9DED2A1B9DED222B21EE022BEC
:1028F0009DED1E1B22EE012B0CE00000112D445417
:10290000FB2109400000000000806640000000003C
:10291000000000009DED181B02EE410B84ED3C0B06
:1029200029EE0B0B08EE0C0B30EE0A1B9DED2A0B6B
:1029300021EE000B9DED2C1B9DED222B21EE022B99
:102940009DED1E1B22EE012B9DED181B02EE010BCF
:1029500084ED3E0B9DED1C0B08EE4B0B09EE0C0BB2
:1029600084ED400B95ED000B8DED0C0B95ED020BFE
:102970008DED0E0B95ED040B8DED100B95ED060B0B
:102980008DED120B95ED080B8DED140B95ED0A0BEB
:102990008DED160B4FF000082DE000270DE008EB41
:1029A000480004EB001000EBC70090ED000B6846F8
:1029B00000EBC70080ED000B7F1C032FEFDB03272C
:1029C00007E01FED2E0B684600EBC70080ED000B03
:1029D0007F1C062FF5DB08EB480004EB00121FED0F
:1029E000352B1FED361B1FED370B0CA968460DF07C
:1029F000E9FF08F10108B8F1060FCEDB002070E610
:102A000010B507F0EDFE00F0F1F904F086FE0EF0CF
:102A1000F5F84FF4E1201EF0F1FF07F087FB07F017
:102A200007FD03F0E9FC0D48FDF0B6FC07F0C8FF18
:102A300007F0A0FF07F078FF07F04AFF62B608A092
:102A400011F012FD40F201430B4A0A210BA011F0D4
:102A50000BFD184811F008FD10BD0000F40400241F
:102A600042616E745F686172645F73657475702033
:102A7000646F6E650D0A00005D00350177656C635B
:102A80006F6D6520746F2042616E7420483720524C
:102A90006F626F7420636F6E74726F6C3A2076652C
:102AA000723D25642C6264646174653D25642C2547
:102AB000640D0A006C26020810B500244E48006818
:102AC00001282CD14D48007848BB4D480068D0F80B
:102AD00002004C490860084600684B490968401AE2
:102AE0004A49096848434FF4B471484300EE100A5C
:102AF000B8EEC00BB7EE001B20EE011B444890ED72
:102B0000000AB8EEC02B81EE020B424890ED001A8D
:102B1000B7EEC11A80EE012B3F4880ED002B3F48F5
:102B200000780A2867D101213D48FDF069FC3D4845
:102B300090F8CC03142805D13B480068401C3A4962
:102B4000086013E0374890F8CC0338B9364800687D
:102B5000052803D901203149087007E0314890F871
:102B6000CC03FF2802D10C202C490870002434E04B
:102B7000264850F8240000EE100AB8EEC00B294891
:102B8000483000EBC40090ED001B20EE010B9FEDE0
:102B9000272B80EE021B1E4850F8240000EE100A7E
:102BA000B8EEC00B21EE001B1A4800EB840090ED3C
:102BB000000AB7EEC02A144850F8240000EE100AAC
:102BC000B8EEC00B01EE020BBDEEC00B10EE100A0A
:102BD000184941F82400601CC4B2042CC8DB074823
:102BE0000078012807D0002401E0601CC4B212481C
:102BF00000688442F9DB10BD98010024F500002430
:102C0000280600249C900124A8B50124B4010024C6
:102C1000F40100249C010024C0B50124D800002444
:102C2000786D0124A08B0124F8000024000000002E
:102C300000807640FC900124680000242DE9F041DA
:102C40002DED048B98B006460F4690460A259FED61
:102C50001B0BB0EE408B302231466846FDF79AFBE5
:102C6000012422E000EE104AB8EEC01B00EE105A1C
:102C7000B8EEC00B81EE002BB0EE429B43463A46C5
:102C80000CA9B0EE490B304603F03EFA3A460CA9C7
:102C9000684607F03FFD30EE080BB0EE408B302267
:102CA0000CA96846FDF776FB641CAC42DADDB0EE99
:102CB000480B18B0BDEC048BBDE8F08100000000AB
:102CC00000000000F0B52DED068B99B005460E46CC
:102CD00017460A2008EE100A9FED1C0BB0EE409B31
:102CE000302229466846FDF755FB012420E000EE1E
:102CF000104AB8EEC00BB8EEC81B80EE012BB0EE48
:102D000042AB3B4632460CA9B0EE4A0B284603F0D4
:102D1000FBF932460CA9684607F0FCFC30EE090BC3
:102D2000B0EE409B30220CA96846FDF733FB641CD3
:102D300018EE100A00EBD071B4EB610FD7DDB0EEE6
:102D4000490B19B0BDEC068BF0BD0000000000007F
:102D5000000000002DE9F0412DED048B98B0804675
:102D60000E4617460A249FED1F0BB0EE408B3B46E4
:102D700032466946B6EE000B404603F0C5F92046E0
:102D800004EBD07149104D1C22E000EE105AB8EE51
:102D9000C01B00EE104AB8EEC00B81EE002BB0EE67
:102DA000429B3B4632460CA9B0EE490B404603F02D
:102DB000ABF932460CA9684607F0ACFC30EE080BC4
:102DC000B0EE408B30220CA96846FDF7E3FA6D1C8B
:102DD000A542DADDB0EE480B18B0BDEC048BBDE8BF
:102DE000F0810000000000000000000010B50CF0B1
:102DF000AFFE0CF05FFE10BD30B52DED0C8BA3B017
:102E000004460D461CAA04F11801204609F016FDDF
:102E100016AA05F11801284609F010FD1CA91CA8E6
:102E200002F036FBB0EE408B16A916A802F030FB7C
:102E3000B0EE409B9FED620BB4EEC08BF1EE10FA4A
:102E40000ED29FED5F0BB4EEC09BF1EE10FA07D2ED
:102E50002946204607F08EFC23B0BDEC0C8B30BD1C
:102E60009FED570BB4EEC08BF1EE10FA04D2214661
:102E7000284609F07DFCEFE79FED510BB4EEC09BB7
:102E8000F1EE10FA04D22946204609F071FCE3E77E
:102E900016A91CA802F0FCFAB0EE40AB10AA21461D
:102EA000284609F0CBFC1CA910A802F0F1FAB0EEFC
:102EB00040DB16A910A802F0EBFAB0EE40BB28EEFA
:102EC000090BB0EE40CB0AEE4ACB9FED3D0BB4EEC2
:102ED000C0CBF1EE10FA14D29FED3B0B8DED0E0B33
:102EE0008DED0CBBB0EE484BB0EE493BB0EE4B2B3A
:102EF000B0EE4D1BB0EE4A0B0CA90EA800F068F81E
:102F00001DE02BEE0A0B0DEE490B80EE0C1B8DED38
:102F10000E1B2BEE080B0DEE4A0B80EE0C1B8DEDFD
:102F20000C1BB0EE484BB0EE493BB0EE4B2BB0EE75
:102F30004D1BB0EE4A0B0CA90EA800F049F894ED19
:102F4000000B9DED1C1B9DED0E2B02EE010B8DED7C
:102F5000060B94ED020B9DED1E1B9DED0E2B02EE5C
:102F6000010B8DED080B94ED040B9DED201B9DEDE9
:102F70000E2B02EE010B8DED0A0B95ED000B9DED76
:102F8000161B9DED0C2B02EE010B8DED000B95ED4C
:102F9000020B9DED181B9DED0C2B02EE010B8DED30
:102FA000020B95ED040B9DED1A1B9DED0C2B02EE13
:102FB000010B8DED040B694606A807F0DBFB4BE720
:102FC000F168E388B5F8E43E00000000000000006E
:102FD00090ED005BB7EE006BB4EEC65BF1EE10FA5D
:102FE00006DC90ED005BB5EEC05BF1EE10FA21D28D
:102FF00090ED005BB7EE006BB4EEC65BF1EE10FA3D
:1030000003DDB7EE005B80ED005B90ED005BB5EE9D
:10301000C05BF1EE10FA03D29FED2D5B80ED005BFB
:1030200090ED006BB0EE425B06EE005B85EE036B4D
:1030300081ED006B91ED005BB5EEC05BF1EE10FA37
:1030400009DB91ED005BB7EE006BB4EEC65BF1EE11
:1030500010FA00D8704791ED005BB7EE006BB4EE4C
:10306000C65BF1EE10FA03DDB7EE005B81ED005BAD
:1030700091ED005BB5EEC05BF1EE10FA03D29FED6F
:10308000145B81ED005B91ED006BB0EE415B16EEE1
:10309000005B85EE046B80ED006B90ED005BB7EE9E
:1030A000006BB4EEC65BF1EE10FA03DDB7EE005B29
:1030B00080ED005B90ED005BB5EEC05BF1EE10FAC9
:1030C00003D29FED035B80ED005B00BFC2E7000011
:1030D000000000000000000010B52DED0C8B044630
:1030E000B0EE408BB0EE41ABB0EE429B9FEDF20BE9
:1030F00029EE000B9FEDF21B80EE012BB0EE42BBE0
:10310000B0EE4B0B11F0DCFCB0EE40CB9FEDEA0BC8
:103110002AEE000B9FEDEA1B80EE012BB0EE42BBC6
:10312000B0EE4B0B11F0CCFC2CEE000B84ED000B41
:103130009FEDE10B29EE000B9FEDE11B80EE012BD3
:10314000B0EE42BBB0EE4B0B11F0BAFCB0EE40CB90
:103150009FEDD90B2AEE000B9FEDD91B80EE012BC2
:10316000B0EE42BBB0EE4B0B12F002FB2CEE00CBEC
:103170009FEDD10B28EE000B9FEDD11B80EE012BB4
:10318000B0EE42BBB0EE4B0B12F0F2FA2CEE00CBDD
:103190009FEDC90B29EE000B9FEDC91B80EE012BA3
:1031A000B0EE42BBB0EE4B0B12F0E2FAB0EE40DBF9
:1031B0009FEDC10B28EE000B9FEDC11B80EE012B94
:1031C000B0EE42BBB0EE4B0B11F07AFC0DEE40CBF3
:1031D00084ED02CB9FEDB80B29EE000B9FEDB81BE1
:1031E00080EE012BB0EE42BBB0EE4B0B11F068FC51
:1031F000B0EE40CB9FEDB00B2AEE000B9FEDB01B65
:1032000080EE012BB0EE42BBB0EE4B0B12F0B0FAE9
:103210002CEE00CB9FEDA80B28EE000B9FEDA81B1A
:1032200080EE012BB0EE42BBB0EE4B0B11F048FC30
:103230002CEE00CB9FEDA00B29EE000B9FEDA01B09
:1032400080EE012BB0EE42BBB0EE4B0B12F090FAC9
:10325000B0EE40DB9FED980B28EE000B9FED981B26
:1032600080EE012BB0EE42BBB0EE4B0B12F080FAB9
:103270000DEE00CB84ED04CB9FED8F0B29EE000B00
:103280009FED8F1B80EE012BB0EE42BBB0EE4B0BDF
:1032900012F06EFAB0EE40CB9FED870B2AEE000BDA
:1032A0009FED871B80EE012BB0EE42BBB0EE4B0BC7
:1032B00011F006FC2CEE000B84ED060B9FED7E0B4F
:1032C00029EE000B9FED7E1B80EE012BB0EE42BB82
:1032D000B0EE4B0B12F04CFAB0EE40CB9FED760BFC
:1032E0002AEE000B9FED761B80EE012BB0EE42BB69
:1032F000B0EE4B0B12F03CFA2CEE00CB9FED6E0BB8
:1033000028EE000B9FED6E1B80EE012BB0EE42BB52
:10331000B0EE4B0B12F02CFA2CEE00CB9FED660BAF
:1033200029EE000B9FED661B80EE012BB0EE42BB39
:10333000B0EE4B0B11F0C4FBB0EE40DB9FED5E0B2B
:1033400028EE000B9FED5E1B80EE012BB0EE42BB22
:10335000B0EE4B0B11F0B4FB0DEE00CB84ED08CBBF
:103360009FED550B29EE000B9FED551B80EE012BB9
:10337000B0EE42BBB0EE4B0B12F0FAF9B0EE40CB20
:103380009FED4D0B2AEE000B9FED4D1B80EE012BA8
:10339000B0EE42BBB0EE4B0B12F0EAF92CEE00CBD4
:1033A0009FED450B28EE000B9FED451B80EE012B9A
:1033B000B0EE42BBB0EE4B0B11F082FB2CEE00CB1B
:1033C0009FED3D0B29EE000B9FED3D1B80EE012B89
:1033D000B0EE42BBB0EE4B0B11F072FBB0EE40DB37
:1033E0009FED350B28EE000B9FED351B80EE012B7A
:1033F000B0EE42BBB0EE4B0B12F0BAF90DEE40CB83
:1034000084ED0ACB9FED2C0B2AEE000B9FED2C1BBD
:1034100080EE012BB0EE42BBB0EE4B0B12F0A8F9E0
:10342000B1EE400B84ED0C0B9FED230B2AEE000B4D
:103430009FED231B80EE012BB0EE42BBB0EE4B0B99
:1034400011F03EFBB0EE40CB9FED1B0B28EE000BC6
:103450009FED1B1B80EE012BB0EE42BBB0EE4B0B81
:1034600012F086F92CEE000B84ED0E0B9FED120B83
:103470002AEE000B9FED121B80EE012BB0EE42BB3B
:10348000B0EE4B0B11F01CFBB0EE40CB9FED0A0BE6
:1034900028EE000B9FED0A1B80EE012BB0EE42BB25
:1034A000B0EE4B0B11F00CFB2CEE000B84ED100B6F
:1034B0000020BDEC0C8B10BD112D4454FB210940A4
:1034C00000000000008066402DE9F0472DED0A8BDA
:1034D000A0B081460D46B0EE409B16461F46DDE982
:1034E000328AB9F1010F06D0B9F1020F7ED0B9F1DD
:1034F000030F57D157E0B7B905F5806090ED121B67
:1035000081EE090BB7EE001B31EE408B90ED121BE4
:1035100081EE090BB0EE001B80EE012BB7EE000B25
:1035200030EE42AB0BE095EDAC1B81EE090BB0EE3B
:10353000001B80EE018B95EDAC0B80EE09AB0024F7
:103540002EE0B7EE000B30EE480B05EBC40090ED1B
:10355000001B20EE010B05F1F00000EBC40090ED24
:10356000001B08EE010B06EBC40080ED000BB7EE6C
:10357000000B30EE4A0B05EBC40090ED001B20EE73
:10358000010B05F1F00000EBC40090ED001B0AEE0A
:10359000010B06F1300000EBC40080ED000B641C51
:1035A000032CCEDB46E2002F7BD105F5806090ED49
:1035B000121B81EE090BB7EE001B31EE408B00248D
:1035C0003CE028EE090B95ED601B80EE012BB0EE80
:1035D00042BBB0EE4B0B11F073FA95ED601B20EE81
:1035E000010B05F5E47000EBC40000E0CEE090EDC7
:1035F000001B05F5C47000EBC40090ED00CB00EE9D
:1036000001CB28EE090B95ED601B80EE012BB0EE8F
:1036100042BBB0EE4B0B12F0ABF895ED601B20EE09
:10362000010B05F5F07000EBC40090ED001B00EEFF
:1036300001CB06EBC40080ED00CB641C032CC0DB87
:103640001AAA314605F5C47009F0F8F814AA1AA9A7
:1036500005F5D87000F0FAF914A808F0D3FA0024A0
:103660001BE014A800EBC40090ED000B05F5806092
:1036700090ED121B20EE010BB0EE002B80EE021B32
:1036800006EBC40090ED000B31EE000B06F13000AC
:1036900000EBC40080ED000B641C032CE1DB74E044
:1036A000FFE795EDAC0B80EE098B00243CE028EEA3
:1036B000090B95ED601B80EE012BB0EE42BBB0EE26
:1036C0004B0B11F0FDF995ED601B20EE010B05F59C
:1036D000E47000EBC40090ED001B05F5C47000EB36
:1036E000C40090ED00CB00EE01CB28EE090B95ED68
:1036F000601B80EE012BB0EE42BBB0EE4B0B12F024
:1037000037F895ED601B20EE010B05F5F07000EB2E
:10371000C40090ED001B00EE01CB06F1300000EB81
:10372000C40080ED00CB641C032CC0DB1AAA06F198
:10373000300105F5C47009F081F814AA1AA905F53D
:10374000D87000F083F914A808F05CFA002419E09E
:1037500014A800EBC40090ED000B95EDAC1B20EE1F
:10376000011BB0EE002B81EE020B06F1300000EBE6
:10377000C40090ED001B31EE400B06EBC40080ED61
:10378000000B641C032CE3DB00BF53E1002F75D159
:1037900005F5806090ED121B81EE090BB7EE001B62
:1037A00031EE408B00241AE0B7EE000B30EE480BF0
:1037B00005F1300000EBC40090ED001B20EE010B82
:1037C00005F5907000EBC40090ED001B08EE010BB6
:1037D00006F1F00000EBC40080ED000B641C4445D2
:1037E000E2DB05F1F00306F1F002002150460096FD
:1037F0000DF080FD05F5806090ED121BB7EE002BFB
:1038000082EE010BB2EE042B80EE021B31EE080BB0
:10381000B0EE408BB7EE000BB4EEC08BF1EE10FAB9
:1038200003DDB7EE000BB0EE408B002419E0B7EEDD
:10383000000B30EE480B05F1300000EBC40090EDBA
:10384000001B20EE010B05F5907000EBC40090ED1D
:10385000001B08EE010B14A800EBC40080ED000B68
:10386000641C4445E3DB08A805F1F00314AA002119
:10387000009050460DF03EFD002411E036E008A80F
:1038800000EBC40090ED000B06EBC40090ED001BB4
:1038900030EE410B02A800EBC40080ED000B641C6D
:1038A000032CECDB02A808F0ADF900241BE002A811
:1038B00000EBC40090ED000B05F5806090ED121B4D
:1038C00020EE010BB0EE002B80EE021B06EBC400D5
:1038D00090ED000B31EE000B06F1300000EBC40060
:1038E00080ED000B641C032CE1DBA2E095EDAC0B3A
:1038F00080EE098B00241AE0B7EE000B30EE480B87
:1039000005F1300000EBC40090ED001B20EE010B30
:1039100005F5907000EBC40090ED001B08EE010B64
:1039200006F1900000EBC40080ED000B641C4445E0
:10393000E2DB06F130002B4606F1900200210090F8
:1039400050460DF0D7FC95EDAC1BB7EE002B82EE88
:10395000010BB2EE042B80EE021B38EE410BB0EEF1
:10396000408BB5EEC08BF1EE10FA03D29FED350B14
:10397000B0EE408B002419E0B7EE000B30EE480BA0
:1039800005F1300000EBC40090ED001B20EE010BB0
:1039900005F5907000EBC40090ED001B08EE010BE4
:1039A00014A800EBC40080ED000B641C4445E3DB6D
:1039B00008A82B4614AA0021009050460DF09AFC4E
:1039C000002412E008A800EBC40090ED000B06F103
:1039D000300000EBC40090ED001B30EE410B02A85C
:1039E00000EBC40080ED000B641C032CEADB02A892
:1039F00008F008F9002419E002A800EBC40090EDDB
:103A0000000B95EDAC1B20EE011BB0EE002B81EE00
:103A1000020B06F1300000EBC40090ED001B30EE0D
:103A2000010B06EBC40080ED000B641C032CE3DBF0
:103A300000BF00BF00BF002020B0BDEC0A8BBDE876
:103A4000F08700000000000000000000034693ED36
:103A5000020B91ED041B20EE010B93ED041B91ED85
:103A6000022B01EE420B82ED000B93ED040B91ED66
:103A7000001B20EE010B93ED001B91ED042B01EEDA
:103A8000420B82ED020B93ED000B91ED021B20EE39
:103A9000010B93ED021B91ED002B01EE420B82ED29
:103AA000040B002070477047F0B52DED088B91B0E6
:103AB0000446B0EE408BB0EE419BB0EE42AB0E46FA
:103AC00017461D4694ED0C2B94ED0C3BB7EE001BF6
:103AD00002EE431BB0EE410B11F0A2FEB0EE40BB74
:103AE00094ED0C1BB1EE411BB0EE410BB0EE4B1B45
:103AF00010F006FF9FEDED1B20EE010B9FEDED1B7F
:103B000080EE012B8DED082B94ED0C1BB1EE411BCB
:103B1000B0EE410BB1EE4B1B10F0F2FE9FEDE31B3C
:103B200020EE010B9FEDE31B80EE012B8DED0A2BA8
:103B3000B0EECB0B9FEDE11BB4EEC10BF1EE10FA32
:103B400058DD94ED002BB0EE421B94ED062BB0EE49
:103B5000420B10F0D5FE9FEDD51B20EE010B9FED23
:103B6000D51B80EE012B8DED042B94ED002BB1EED7
:103B7000422BB0EE421B94ED062BB1EE422BB0EE81
:103B8000420B10F0BDFE9FEDC91B20EE010B9FED17
:103B9000C91B80EE012B8DED062B94ED102BB0EEA2
:103BA000421B94ED0E2BB0EE420B10F0A9FE9FEDE0
:103BB000BF1B20EE010B9FEDBF1B80EE012B8DED97
:103BC0000C2B94ED102BB1EE422BB0EE421B94ED7A
:103BD0000E2BB1EE422BB0EE420B10F091FE9FED9A
:103BE000B31B20EE010B9FEDB31B80EE012B8DED7F
:103BF0000E2B3DE08DED0E8B8DED0C8B94ED023B8D
:103C000094ED0C2BB1EE422BB5EEC02BF1EE10FA79
:103C100002D24FF0FF3000E0012002EE100AB8EEB1
:103C2000C22B23EE020B94ED081B10F069FE9FEDF2
:103C30009F1B20EE010B9FED9F2B80EE021B94ED4E
:103C40000C0BB1EE400BB5EEC00BF1EE10FA02D248
:103C50004FF0FF3000E0012000EE100AB8EEC02B5C
:103C6000B0EE480B02EE410B8DED060B8DED040B13
:103C70009DED0C1BB0EE410BB0EE481B07F034FF7E
:103C80008DED0C0B9DED0E1BB0EE410BB0EE481B05
:103C900007F02AFF8DED0E0B9DED041BB0EE410BDE
:103CA000B0EE4A1B07F020FF8DED040B9DED061BC7
:103CB000B0EE410BB0EE4A1B07F016FF8DED060B80
:103CC0009DED0C0B30EE480BB0EEC00B9DED081BCC
:103CD00031EE491BB0EEC11B30EE010B9DED041B14
:103CE00031EE4A1BB0EEC11B30EE010B8DED000B27
:103CF0009DED0E0B30EE480BB0EEC00B9DED0A1B98
:103D000031EE491BB0EEC11B30EE010B9DED061BE1
:103D100031EE4A1BB0EEC11B30EE010B8DED020BF4
:103D2000B5EEC09BF1EE10FA58D29DED080BB5EE42
:103D3000C00BF1EE10FA13D29DED0A0BB5EEC00BDD
:103D4000F1EE10FA0CDB9DED0C0B86ED000B9DEDFA
:103D5000080B87ED000B9DED040B85ED000B95E046
:103D60009DED0A0BB5EEC00BF1EE10FA13D29DEDEE
:103D7000080BB5EEC00BF1EE10FA0CDB9DED0E0B4F
:103D800086ED000B9DED0A0B87ED000B9DED060BFC
:103D900085ED000B7AE09DED000B9DED021BB4EE6E
:103DA000C10BF1EE10FA0CD89DED0C0B86ED000B5B
:103DB0009DED080B87ED000B9DED040B85ED000BD1
:103DC00064E09DED0E0B86ED000B9DED0A0B87ED7B
:103DD000000B9DED060B85ED000B57E09DED080BEC
:103DE000B5EEC00BF1EE10FA13DB9DED0A0BB5EE4C
:103DF000C00BF1EE10FA0CD29DED0C0B86ED000B12
:103E00009DED080B87ED000B9DED040B85ED000B80
:103E10003CE09DED0A0BB5EEC00BF1EE10FA13DBA2
:103E20009DED080BB5EEC00BF1EE10FA0CD29DED36
:103E30000E0B86ED000B9DED0A0B87ED000B9DED43
:103E4000060B85ED000B21E09DED000B9DED021BA7
:103E5000B4EEC10BF1EE10FA0CD89DED0C0B86ED13
:103E6000000B9DED080B87ED000B9DED040B85ED20
:103E7000000B0BE09DED0E0B86ED000B9DED0A0B8C
:103E800087ED000B9DED060B85ED000B95ED001BFE
:103E9000B0EE410BB0EE4A1B07F026FE85ED000B9D
:103EA000002011B0BDEC088BF0BD00000000000048
:103EB00000806640112D4454FB210940F168E388DD
:103EC000B5F8E43EF0B52DED108B9DB004460D46DF
:103ED00016461F469FEDFE0BB0EE408B95ED000B96
:103EE000B0EE409B95ED020BB0EE40AB95ED040BB0
:103EF000B0EE40BB95ED060BB0EE40CB9FEDF60B60
:103F0000B0EE40DB9FEDF60BB0EE40EB9FEDF60B15
:103F1000B0EE40FB9FEDF60B8DED1A0B9FEDEC0B19
:103F20008DED180B94ED000B8DED0C0B94ED020B49
:103F30008DED0E0B94ED040B8DED100B94ED0A0B33
:103F40008DED120BB5EEC0DBF1EE10FA17D9B5EE20
:103F5000C0EBF1EE10FA12D9B5EEC0FBF1EE10FA9B
:103F60000DD99DED1A0BB5EEC00BF1EE10FA06D986
:103F70009DED180BB5EEC00BF1EE10FA05D240F234
:103F8000FD301DB0BDEC108BF0BD9FEDDB0BDC48B0
:103F900080ED000B9FEDDB0BDC4880ED000B9FED0F
:103FA000DC0BDD4880ED000B9FEDCB0BDB4880ED9B
:103FB000000B9FEDD41B89EE010B9FEDD91B20EE6A
:103FC000010BD94880ED000B9FEDCE0B8AEE001B54
:103FD0009FEDD30B21EE000BD44880ED000B9FED3D
:103FE000C91B8BEE010B9FEDCE1B20EE010BD048C1
:103FF00080ED000BCC4890ED000B10F061FDCD483A
:1040000080ED000BC94890ED000B10F059FDCA4837
:1040100080ED000BC64890ED000B10F051FDC74835
:1040200080ED000BC04890ED000B11F0A1FBC448DF
:1040300080ED000BBD4890ED000B11F099FBC148DD
:1040400080ED000BBA4890ED000B11F091FBBE48DB
:1040500080ED000BAA4890ED000BAC4890ED001BE2
:10406000B44890ED002B01EE020BB84880ED000B38
:104070009FED970B80ED020BA44890ED000BB1EE85
:10408000400BAF4890ED001B20EE010BAF4880EDD8
:10409000040B9B4890ED000B9C4890ED001BA6483C
:1040A00090ED002B01EE020BBEEE001B20EE010B8B
:1040B000A74880ED000BB0EE080B11F0B1FBB0EE9D
:1040C000002B80EE021B8E4890ED000B8F4890ED88
:1040D000002B994890ED003B02EE030B21EE000B04
:1040E0009B4880ED020B894890ED000BB1EE400B30
:1040F000944890ED001B20EE010B954880ED040BD9
:104100007F4890ED000B814890ED001B8B4890EDAF
:10411000002B01EE020BBEEE001B20EE010B8D48C2
:1041200080ED000BB0EE080B11F07AFBB1EE400B06
:10413000B0EE002B80EE021B714890ED000B73482F
:1041400090ED002B7D4890ED003B02EE030B21EE3D
:10415000000B804880ED020B6C4890ED000BB1EE37
:10416000400B794890ED001B20EE010B794880ED63
:10417000040B634890ED000B644890ED001B6D4804
:1041800090ED002B01EE020B644890ED001B30EE29
:10419000410B714880ED000B9FED4D0B80ED020B44
:1041A0005A4890ED000BB1EE400B654890ED001BB6
:1041B00020EE010B684880ED040B514890ED000B98
:1041C000524890ED001B5C4890ED002B01EE020B75
:1041D000524890ED001B30EE410BBEEE001B20EE6E
:1041E000010B5E4880ED000BB0EE080B11F018FBE0
:1041F000B0EE002B80EE021B414890ED000B4348CF
:1042000090ED002B4C4890ED003B02EE030B434831
:1042100090ED002B30EE420B21EE000B4F4880ED6D
:10422000020B3A4890ED000BB1EE400B454890ED83
:10423000001B20EE010B494880ED040B304890ED47
:10424000000B324890ED001B3C4890ED002B01EE36
:10425000020B324890ED001B30EE410BBEEE001B0E
:1042600020EE010B3E4880ED000BB0EE080B11F084
:10427000D7FAB1EE400BB0EE002B80EE021B2048C7
:1042800090ED000B214890ED002B2C4890ED003B69
:1042900002EE030B214890ED002B30EE420B21EE95
:1042A000000B2F4880ED020B184890ED000BB1EE8B
:1042B000400B254890ED001B20EE010B284880EDB7
:1042C000040B264890ED000B234890ED001B49E0BD
:1042D00000000000000000000000000000004E4050
:1042E0000000000000005940000000000080414034
:1042F0000000000000E075400000000000605F402A
:104300001002002400000000008066401802002413
:1043100000000000009081402002002428020024B8
:10432000112D4454FB21094030020024380200249E
:1043300040020024480200245002002458020024B5
:1043400060020024680200247002002470B7012477
:1043500088B70124A0B70124B8B70124D0B701243D
:10436000E8B7012430EE410BDF4880ED000BDF4859
:1043700090ED020BDE4890ED021B30EE410BDA4867
:1043800080ED020BD94890ED040BD94890ED041B49
:1043900030EE410BD44880ED040BD64890ED000B75
:1043A000D34890ED001B30EE410BD34880ED000B5D
:1043B000D04890ED020BCE4890ED021B30EE410B41
:1043C000CD4880ED020BCB4890ED040BC84890ED32
:1043D000041B30EE410BC84880ED040BC24812F0BC
:1043E00002FAC64880ED000BBF4890ED000BC348B1
:1043F00090ED001B80EE012BC14880ED002BBA48E8
:1044000090ED020BBD4890ED001B80EE012BBC48E7
:1044100080ED022BB44890ED040BB84890ED001BE2
:1044200080EE012BB64880ED042BB3491DF1E7FF68
:10443000B44880ED000BB04890ED000BB04890ED13
:10444000001BB04890ED002B02EE410BAE4880ED12
:10445000000BA94890ED020BA94890ED021BA9485A
:1044600090ED002B02EE410BA74880ED020BA24815
:1044700090ED040BA24890ED041BA24890ED002B98
:1044800002EE410BA04880ED040B12F0ACF99F48FE
:1044900080ED000B984890ED000B994890ED001BC3
:1044A000984890ED002B02EE410B984890ED001BD0
:1044B00080EE012B964880ED002B8F4890ED020B8B
:1044C0008F4890ED021B8F4890ED002B02EE410BC0
:1044D0008E4890ED001B80EE012B8D4880ED022B65
:1044E000854890ED040B864890ED041B854890EDBF
:1044F000002B02EE410B854890ED001B80EE012B56
:10450000834880ED042B834A01467D4812F040F930
:1045100079497F481DF173FF7F4880ED000B774894
:1045200090ED000BB0EE001B80EE012B7B4880ED80
:10453000002B744890ED000B20EE000B764890EDB8
:10454000001B90ED002B01EE020B6E4890ED001B5E
:10455000B0EE002B21EE021B704890ED002B01EE17
:10456000420BB0EE002B80EE021B6B4890ED000B6F
:1045700081EE002B6A4880ED002B6A4890ED000B1D
:1045800020EE000B654890ED001B90ED002B01EE36
:10459000420B634890ED001B90ED002B01EE420BA7
:1045A000B0EE408BB5EEC08BF1EE10FA05D25EA0F6
:1045B0000FF05AFF40F2FE30E3E45A4890ED001B42
:1045C00021EE011B554890ED002B90ED003B02EED3
:1045D000431B534890ED002B90ED003B02EE431B34
:1045E000B0EE410B11F01CF9B1EE400B534880EDD9
:1045F000000B3F4890ED000B414890ED001B4748F1
:1046000090ED002B02EE010B414890ED001B444859
:1046100090ED002B02EE010B3E4890ED001B474849
:1046200090ED002B02EE010B454880ED000B304869
:1046300090ED020B324890ED021B384890ED002BB4
:1046400002EE010B324890ED021B354890ED002B35
:1046500002EE010B2F4890ED021B384890ED002B25
:1046600002EE010B364880ED020B214890ED040B61
:10467000234890ED041B294890ED002B02EE010B1E
:10468000234890ED041B264890ED002B02EE010B11
:10469000204890ED041B294890ED002B02EE010B01
:1046A000274880ED040B90ED040B8DED040B90ED8D
:1046B000000B8DED000B90ED020B8DED020B8DEDDF
:1046C00006CB96ED062BB0EE421B9DED062BB0EE11
:1046D000420B07F009FA8DED060B3A460CA9684625
:1046E0000CF0E4F800204CE400B80124D0B7012419
:1046F000B8B70124E8B7012418B8012478020024CF
:1047000030B801248002002460B80124880200240B
:1047100048B8012478B801249002002498020024AB
:10472000A00200242002002444656C746144697274
:10473000656374206572726F720D0A00A80200240E
:1047400090B80124F0B52DED0C8B99B005460E46BE
:1047500017461C4695ED000B8DED0C0B95ED020BED
:104760008DED0E0B95ED040B8DED100B95ED0A0BF9
:104770008DED120B6A460CA93046FCF77BF99DEDD6
:10478000000BB0EE409B9DED020BB0EE40AB9DEDFB
:10479000040BB0EE40BB9DED060BB0EE40CB9FEDA1
:1047A000FC0BB0EE408B9FEDFC0BFD4880ED000B49
:1047B0009FEDFC0BFD4880ED000B9FEDFD0BFE48CF
:1047C00080ED000B9FEDFD0BFE4880ED000BFE48D9
:1047D00080ED009B80ED02AB80ED04BB90ED000B03
:1047E000B1EE400BB0EE001B80EE01DBB0EE080B2B
:1047F00011F016F8F44890ED021B20EE010BB0EE1C
:10480000001B80EE012B3DEE020BF04880ED000B0B
:10481000B0EE080B11F004F8B1EE400BEA4890ED51
:10482000001B20EE011BB0EE002B81EE020B90ED81
:10483000021BB0EE002B81EE023B30EE430BE3484F
:1048400080ED020BE04890ED040BE04880ED040B96
:10485000DD4890ED000BB1EE400BB0EE001B80EE9A
:1048600001DBB0EE080B10F0DBFFD74890ED021B28
:1048700020EE010BB0EE001B80EE012B3DEE420B53
:10488000D34880ED000BB0EE080B10F0C9FFCE4806
:1048900090ED001B20EE011BB0EE002B81EE020B11
:1048A00090ED021BB0EE002B81EE023B30EE430B8D
:1048B000C74880ED020BC44890ED040BC44880ED5E
:1048C000040BB74890ED000BC24880ED000B9FED44
:1048D000B00B80ED020BBC4890ED000BB94890ED99
:1048E000001B30EE010BBC4880ED000BB64890ED8C
:1048F000040BB94880ED020BA94890ED000BB0EE17
:10490000001B20EE010BB44890ED001BB0EE002B15
:1049100002EE410BB14880ED000BAF4890ED000B6B
:1049200020EE000BA14890ED001B90ED002B01EE56
:10493000020B9B4890ED001B90ED002B01EE420B0B
:104940009D4890ED001B90ED002B01EE420B9E4820
:1049500090ED021B90ED022B01EE020B90ED041B7B
:1049600090ED042B01EE020B9D4880ED000B964864
:1049700090ED040BB1EE001B20EE010B90ED041B3B
:1049800020EE010B954890ED001B90ED002B01EE01
:10499000020B944880ED000B814890ED000BB2EEC5
:1049A000001B20EE010B884890ED041B20EE011B3C
:1049B00090ED042B894890ED000BB0EE003B20EE0B
:1049C000030B874890ED003B20EE030B01EE420BFA
:1049D000854880ED000B7C4890ED040BB1EE001B88
:1049E00020EE010B90ED041B20EE012B6F4890EDA3
:1049F000000B20EE000B6A4890ED001B90ED003B91
:104A000001EE430B764890ED001B21EE011B02EEF8
:104A1000401B764880ED001B734890ED000B20EEA4
:104A2000000B704890ED001BB1EE002B21EE021B35
:104A30006E4890ED002B01EE420BB0EE408BB5EED0
:104A4000C08BF1EE10FA08D269A00FF00DFD40F214
:104A5000FE3019B0BDEC0C8BF0BD634890ED001B2F
:104A600021EE011B5F4890ED002BB1EE003B22EEE2
:104A7000032B5E4890ED003B02EE431BB0EE410B72
:104A800010F0CEFE584890ED001BB1EE411B30EE09
:104A9000011BB0EE002B81EE020B524890ED001B83
:104AA00080EE012B574880ED002B4D4890ED000B18
:104AB0004A4890ED001B534890ED002B01EE020B8D
:104AC000B0EE002B80EE021B3F4890ED040B81EE10
:104AD000002B4D4880ED002B4A4890ED000B3048EC
:104AE00090ED001B30EE410B474890ED001B81EE2E
:104AF000002BB0EE42DBB0EE4D0B0FF001FEB1EE3D
:104B0000400B424880ED000B3E4890ED000B2448DE
:104B100090ED002B30EE420BB0EE401B3A4890ED8A
:104B2000000B0FF0EDFEB1EE400B384880ED000BAE
:104B300090ED000B9FED1B1B20EE010B9FED341B36
:104B400080EE012B344880ED002B204890ED000BC7
:104B50001D4880ED000B1D4890ED020B1A4880EDBA
:104B6000020B1A4890ED040B174880ED040B0C481B
:104B700090ED000B174880ED000B9FED050B80EDCD
:104B8000020B114890ED000B0E4890ED001B45E024
:104B900000000000000000000000000000605F4016
:104BA000100200240000000000806640180200246B
:104BB000000000000090814020020024000000005E
:104BC00000004E402802002490B80124C0B80124FF
:104BD000D8B8012408B9012418B90124B00200246E
:104BE000B8020024C0020024C8020024D00200241D
:104BF000646973637269206E6567617469766520A4
:104C0000310D0A00D8020024E00200243002002402
:104C1000112D4454FB210940F0B8012430EE010B62
:104C2000FE4880ED000BFE4890ED040BFB4880ED44
:104C3000020BFC4890ED000BB0EE001B20EE010BC8
:104C4000F64890ED001BB0EE002B02EE410BF6484B
:104C500080ED000BF14890ED000B20EE000BF348C7
:104C600090ED001B90ED002B01EE020BED4890ED56
:104C7000001B90ED002B01EE420BED4890ED001B68
:104C800090ED002B01EE420BE54890ED021B90EDFC
:104C9000022B01EE020B90ED041B90ED042B01EEB4
:104CA000020BE44880ED000BDD4890ED040BB1EE03
:104CB000001B20EE010B90ED041B20EE010BDA48E7
:104CC00090ED001B90ED002B01EE020BDA4880ED19
:104CD000000BD44890ED000BB2EE001B20EE010B50
:104CE000CF4890ED041B20EE011B90ED042BCE4825
:104CF00090ED000BB0EE003B20EE030BCD4890EDA5
:104D0000003B20EE030B01EE420BCC4880ED000B84
:104D1000C34890ED040BB1EE001B20EE010B90EDAB
:104D2000041B20EE012BC14890ED000B20EE000B80
:104D3000BC4890ED001B90ED003B01EE430BBD48DD
:104D400090ED001B21EE011B02EE401BBC4880EDE4
:104D5000001BBA4890ED000B20EE000BB64890ED1A
:104D6000001BB1EE002B21EE021BB54890ED002B8D
:104D700001EE420BB0EE408BB5EEC08BF1EE10FAB7
:104D800005D2B0A00FF070FB40F2FE3061E6AB48F8
:104D900090ED001B21EE011BA74890ED002BB1EE1A
:104DA000003B22EE032BA64890ED003B02EE431B96
:104DB000B0EE410B10F034FDA04890ED001BB1EEB9
:104DC000411B30EE011BB0EE002B81EE020B9A4826
:104DD00090ED001B80EE012B9F4880ED002B954845
:104DE00090ED000B904890ED001B9B4890ED002B40
:104DF00001EE020BB0EE002B80EE021B884890ED16
:104E0000040B81EE002B954880ED002B924890ED2D
:104E1000000B844890ED001B30EE410B8F4890ED65
:104E2000001B81EE002BB0EE42DBB0EE4D0B0FF01D
:104E300067FCB1EE400B8A4880ED000B864890ED90
:104E4000000B784890ED002B30EE420BB0EE401B8B
:104E5000824890ED000B0FF053FDB1EE400B8048FF
:104E600080ED000B90ED000B1FEDB21B20EE010B4F
:104E70001FED991B80EE012B7A4880ED022B7A48BA
:104E800090ED000B664880ED000B774890ED020B2B
:104E9000634880ED020B744890ED040B604880ED90
:104EA000040B604890ED000B704880ED000B1FED87
:104EB000C80B80ED020B5A4890ED000B6C4890ED4A
:104EC000001B30EE010B554880ED000B544890ED6F
:104ED000040B524880ED020B524890ED000BB0EEEF
:104EE000001B20EE010B4D4890ED001BB0EE002B97
:104EF00002EE410B4C4880ED000B484890ED000B52
:104F000020EE000B494890ED001B90ED002B01EEC8
:104F1000020B444890ED001B90ED002B01EE420B7C
:104F2000434890ED001B90ED002B01EE420B3C48F6
:104F300090ED021B90ED022B01EE020B90ED041B95
:104F400090ED042B01EE020B3A4880ED000B344843
:104F500090ED040BB1EE001B20EE010B90ED041B55
:104F600020EE010B304890ED001B90ED002B01EE80
:104F7000020B314880ED000B2A4890ED000BB2EE99
:104F8000001B20EE010B264890ED041B20EE012BA8
:104F900090ED041B244890ED000BB0EE003B20EE9A
:104FA000030B244890ED003B20EE030B02EE410B77
:104FB000224880ED000B1A4890ED040BB1EE001B67
:104FC00020EE010B90ED041B20EE012B174890ED15
:104FD000000B20EE001B134890ED000B90ED003B02
:104FE00000EE431B134890ED000B20EE000B02EE89
:104FF000410B134880ED000B104890ED000B20EEA4
:10500000000B0D4890ED001BB1EE002B21EE021BB2
:105010000B4890ED002B01EE420B2BE018B9012458
:1050200090B8012410020024B002002418020024C9
:1050300020020024B8020024C0020024C802002478
:10504000D0020024646973637269206E65676174BD
:1050500069766520320D0A00D8020024E00200249F
:1050600030020024F0B80124D8B8012408B9012482
:1050700028020024B0EE408BB5EEC08BF1EE10FAA2
:1050800005D24DA00FF0F0F940F2FE30E1E44F48B8
:1050900090ED001B21EE011B4D4890ED002BB1EE71
:1050A000003B22EE032B4B4890ED003B02EE431BEE
:1050B000B0EE410B10F0B4FB444890ED001BB1EE94
:1050C000411B30EE011BB0EE002B81EE020B40487D
:1050D00090ED001B80EE012B3F4880ED002B3F48F8
:1050E00090ED000B3E4890ED001B3B4890ED002BEF
:1050F00001EE020BB0EE002B80EE021B394890ED62
:10510000040B81EE002B384880ED002B324890EDE7
:10511000000B364890ED001B30EE410B324890ED0D
:10512000001B81EE002BB0EE42DBB0EE4D0B0FF01A
:10513000E7FAB1EE400B2E4880ED000B264890EDCB
:10514000000B2A4890ED002B30EE420BB0EE401BD6
:10515000254890ED000B0FF0D3FBB1EE400B244837
:1051600080ED000B90ED000B9FED221B20EE010B5C
:105170009FED221B80EE012B224880ED042B90ED49
:10518000000B84ED000B90ED020B84ED020B90ED13
:10519000040B84ED040B84ED06CB97ED062BB0EEEB
:1051A000421B94ED062BB0EE420B06F09DFC84ED05
:1051B000060B00204DE40000646973637269206E81
:1051C0006567617469766520330D0A00C8020024A2
:1051D000C0020024D0020024D8020024B802002417
:1051E000B002002490B80124E00200241002002440
:1051F000300200240000000000806640112D44545D
:10520000FB210940F0B801242DE9F0412DED108B70
:10521000A4B005460F46144697ED000BB0EE40AB28
:1052200097ED020BB0EE40BB97ED040BB0EE40CB18
:1052300097ED060B8DED220B9FED8D0B2AEE000BEB
:105240009FED8D1B80EE012B8DED0A2B9DED0A0B42
:105250000FF036FC8DED200B9FED850B2AEE000B39
:105260009FED851B80EE012B8DED0A2B9DED0A0B2A
:1052700010F07EFA8DED1E0B9FED7D0B2BEE000BDB
:105280009FED7D1B80EE012B8DED0A2B9DED0A0B12
:105290000FF016FCB0EE40DB9FED750B2BEE000B14
:1052A0009FED751B80EE012B8DED0A2B9DED0A0BFA
:1052B00010F05EFA8DED1C0B9FED6D0B2CEE000BCC
:1052C0009FED6D1B80EE012B8DED0A2B9DED0A0BE2
:1052D0000FF0F6FBB0EE40EB9FED650B2CEE000BF4
:1052E0009FED651B80EE012B8DED0A2B9DED0A0BCA
:1052F00010F03EFA8DED1A0B9FED610B0FF0E0FB05
:10530000B0EE40FB9FED5E0B10F032FA8DED180B06
:1053100095ED0C0BB0EE409B95ED100BB0EE408B75
:10532000B5EEC09BF1EE10FA04D9B5EEC08BF1EEEC
:1053300010FA06D840F2FD3024B0BDEC108BBDE869
:10534000F0819FED510B84ED000B9FED4F0B84ED31
:10535000020B9FED4D0B84ED040B9DED200BB0EE89
:10536000491B08EE001B84ED0C1B9FED470B84EDE1
:105370000E0BB1EE481B9DED1E0B21EE000B84EDD4
:10538000100BB0EE490B08EE0D0B20EE0F0B84ED69
:10539000180BB0EE490B08EE0D0B9DED181B20EE1F
:1053A000010B84ED1A0BB1EE481B9DED1C0B21EE99
:1053B000000B84ED1C0BB0EE490B08EE0E0B20EE3B
:1053C0000F0B84ED240BB0EE490B08EE0E0B9DED98
:1053D000181BB1EE411B20EE010B84ED260BB1EE44
:1053E000481B9DED1A0B21EE000B84ED280B95ED6B
:1053F000000B8DED0C0B95ED020B8DED0E0B95ED6D
:10540000040B8DED100B95ED0A0B8DED120B4FF08B
:10541000000827E000260DE008EB480004EB001030
:1054200000EBC60090ED000B684600EBC60080ED77
:10543000000B761C032EEFDB032607E09FED120B1B
:10544000684600EBC60080ED000B761C062EF5DBEF
:1054500008EB480004EB00120CA968460BF026FA92
:1054600008F10108B8F1040FD4DB002064E7000064
:10547000112D4454FB2109400000000000806640CB
:1054800061732D3852C10040000000000000000090
:1054900090ED000B91ED001B20EE010B90ED021B37
:1054A00091ED022B01EE020B90ED041B91ED042B0C
:1054B00001EE020B7047F0B504460D46B0EE402BEE
:1054C000059EB7EE000BB0EE401B0020002155E01A
:1054D00005EBC10797ED003B04EBC10797ED004BCF
:1054E00033EE443B83EE024BB0EE440BB5EEC00B03
:1054F000F1EE10FA41D0B5EEC00BF1EE10FA19DD65
:1055000003EB811797ED044B84EE003BB4EEC13BF7
:10551000F1EE10FA0ED203EB811797ED043B83EE08
:10552000004BB0EE441B4F1C4FF0010C0CFA07F778
:105530000743B8B2B5EEC00BF1EE10FA1DD203EB83
:10554000811797ED063BB1EE434B84EE003BB4EE82
:10555000C13BF1EE10FA10D203EB811797ED063B39
:10556000B1EE433B83EE004BB0EE441B4F1C4FF0BB
:10557000010C0CFA07F70743B8B2491C9142A7DBAC
:1055800086ED001BF0BD10B5002210E002EB4204D6
:10559000036903EBC40100230B604B608B60CB609D
:1055A0000B614B6100F12C0343F82210521C042ABA
:1055B000ECD30024C46304644464C464846403249A
:1055C000036803F58053C3F83041036803F5805343
:1055D0000469C3F81C4103694833046804F5805426
:1055E000C4F8283110BD10B500220EE002EB4204D1
:1055F000C36803EBC40100230B604B608B60CB607E
:1056000000F1180343F82210521C042AEED30024A0
:1056100084620324036803F58053C3F82C410368B4
:1056200003F58053C468C3F81441036803F580533D
:10563000C468C3F8204110BD10B5024801F0CCFA8F
:1056400010BD0000A805002410B5A2B0044601203A
:105650008DF83300002012908DF841008DF8430042
:1056600001208DF828008DF856008DF832000020BA
:105670008DF84C0001208DF8840040030F9000202D
:105680008DF85C0018908DF885008DF886004FF439
:10569000C360169000208DF830000B9001208DF82B
:1056A000350000208DF836008DF840001D901B90CD
:1056B00014908DF864008DF87A0001208DF8420076
:1056C0002020209001208DF8440000208DF8550006
:1056D0004FF0405009904FF480400E9000208DF81C
:1056E000310002201F9000208DF878008DF879009D
:1056F0008DF8540001208DF8340000201A9001200C
:105700008DF8700009A9204600F06AFA01208DF892
:1057100004000290002000908DF81C008DF80D0010
:105720008DF80C004FF40010069000208DF8140046
:105730004FF40010049000208DF81D004FF4067007
:1057400008906946204600F0EDF922B010BD000037
:1057500070B506463068D0F8004224F4706402F058
:105760003DFC05461348854205D31348854202D2C5
:1057700044F400741AE01048854205D30F4885426E
:1057800002D244F4407411E00C48854203D30C4823
:10579000854200D20AE00A48854205D3094885427D
:1057A00002D244F4807401E044F480643068C0F8AC
:1057B000004270BD002D3101C00E16020087930318
:1057C00000E1F50580D1F00870B504460D462E467F
:1057D000334622460021044801F02EFE10B14FF05E
:1057E000FF3070BD0020FCE7A80500242DE9F0473C
:1057F00006460B46914606F118052A69D5F810C0F1
:10580000002755F822109C68C86800F00040B0F1ED
:10581000004F02D10220BDE8F087187800F00400A4
:10582000C8B3C8686FF30F00D3F824A040EA0A0099
:10583000C860C86840F48030C8603068006E40F4CA
:105840008010D6F800A0CAF86000187800F00800B0
:1058500008B3B3F82CA088686AF31F408860C86852
:1058600040F40030C860C86820F44020D3F830A06D
:1058700040EA0A00C8603068406E40F48010D6F8F4
:1058800000A0CAF864003068006D40F08060D6F86F
:1058900000A0CAF85000187800F0100058B18868CD
:1058A0006FF30D00D3F818A040EA0A008860C868BA
:1058B00040F08060C860187800F0040018B91878CB
:1058C00000F01000F0B1C86840F08040C860C868BF
:1058D00040F00040C86000BF521C042A00D3121FD1
:1058E00000BF55F822107F1CC86800F00040B0F1DE
:1058F000004F07D155F82C10C86820F00040C86050
:10590000022088E77F1C2068086088686FF30D001C
:10591000D4F804A040EA0A008860A06868B1A468CE
:10592000206848608868DFF8F8A100EA0A00B4F847
:1059300004A040EA0A40886007E0002048608868C8
:10594000DFF8DCA100EA0A008860187800F0100097
:10595000A0B1C86820F4F000B3F820A040EACA4023
:10596000C860C8686FF31100D3F81CA040EA0A00B1
:10597000C860C86840F48020C8601FE0C8686FF342
:105980000E00D3F804A040EA0A00C860187800F0BE
:10599000010038B1C86820F44030D3F814A040EAC0
:1059A0000A00C860187800F0200038B1C86820F0FC
:1059B0004060D3F810A040EA0A00C860187800F0F0
:1059C000040038B1886820F44040D3F828A040EAA9
:1059D0000A008860C86840F00050C860C86820F0BD
:1059E0008040C860C86840F00040C860187800F087
:1059F000020038B1C86820F06070D3F80CA040EA0B
:105A00000A00C86076E000BF521C042A00D3121FAF
:105A100000BF55F82210C86800F00040B0F1004FF8
:105A200017D1624655F822104FF000080DE0C86803
:105A300020F00040C86000BF521C042A00D3121F8F
:105A400000BF55F8221008F10108B845EFD3022035
:105A5000E1E67F1CA4682068086088686FF30D0089
:105A6000D4F804A040EA0A008860A06868B1A4687D
:105A7000206848608868DFF8A8A000EA0A00B4F847
:105A800004A040EA0A40886007E000204860886877
:105A9000DFF88CA000EA0A008860187800F0100097
:105AA00060B1C8686FF31100D3F81CA040EA0A0087
:105AB000C860C86840F48020C86013E0C8686FF30D
:105AC0000E00D3F804A040EA0A00C860187800F07D
:105AD000010038B1C86820F44030D3F814A040EA7F
